{
  "_format": "hh-sol-artifact-1",
  "contractName": "NFT",
  "sourceName": "contracts/NFT.sol",
  "abi": [
    {
      "inputs": [
        {
          "internalType": "address",
          "name": "marketplaceAddress",
          "type": "address"
        }
      ],
      "stateMutability": "nonpayable",
      "type": "constructor"
    },
    {
      "anonymous": false,
      "inputs": [
        {
          "indexed": true,
          "internalType": "address",
          "name": "owner",
          "type": "address"
        },
        {
          "indexed": true,
          "internalType": "address",
          "name": "approved",
          "type": "address"
        },
        {
          "indexed": true,
          "internalType": "uint256",
          "name": "tokenId",
          "type": "uint256"
        }
      ],
      "name": "Approval",
      "type": "event"
    },
    {
      "anonymous": false,
      "inputs": [
        {
          "indexed": true,
          "internalType": "address",
          "name": "owner",
          "type": "address"
        },
        {
          "indexed": true,
          "internalType": "address",
          "name": "operator",
          "type": "address"
        },
        {
          "indexed": false,
          "internalType": "bool",
          "name": "approved",
          "type": "bool"
        }
      ],
      "name": "ApprovalForAll",
      "type": "event"
    },
    {
      "anonymous": false,
      "inputs": [
        {
          "indexed": true,
          "internalType": "address",
          "name": "previousOwner",
          "type": "address"
        },
        {
          "indexed": true,
          "internalType": "address",
          "name": "newOwner",
          "type": "address"
        }
      ],
      "name": "OwnershipTransferred",
      "type": "event"
    },
    {
      "anonymous": false,
      "inputs": [
        {
          "indexed": true,
          "internalType": "address",
          "name": "from",
          "type": "address"
        },
        {
          "indexed": true,
          "internalType": "address",
          "name": "to",
          "type": "address"
        },
        {
          "indexed": true,
          "internalType": "uint256",
          "name": "tokenId",
          "type": "uint256"
        }
      ],
      "name": "Transfer",
      "type": "event"
    },
    {
      "inputs": [
        {
          "internalType": "address",
          "name": "to",
          "type": "address"
        },
        {
          "internalType": "uint256",
          "name": "tokenId",
          "type": "uint256"
        }
      ],
      "name": "approve",
      "outputs": [],
      "stateMutability": "nonpayable",
      "type": "function"
    },
    {
      "inputs": [
        {
          "internalType": "address",
          "name": "owner",
          "type": "address"
        }
      ],
      "name": "balanceOf",
      "outputs": [
        {
          "internalType": "uint256",
          "name": "",
          "type": "uint256"
        }
      ],
      "stateMutability": "view",
      "type": "function"
    },
    {
      "inputs": [
        {
          "internalType": "uint256",
          "name": "tokenId",
          "type": "uint256"
        }
      ],
      "name": "burn",
      "outputs": [],
      "stateMutability": "nonpayable",
      "type": "function"
    },
    {
      "inputs": [
        {
          "internalType": "uint256",
          "name": "tokenId",
          "type": "uint256"
        }
      ],
      "name": "burnNFT",
      "outputs": [],
      "stateMutability": "nonpayable",
      "type": "function"
    },
    {
      "inputs": [
        {
          "internalType": "string",
          "name": "uri",
          "type": "string"
        }
      ],
      "name": "createToken",
      "outputs": [
        {
          "internalType": "uint256",
          "name": "",
          "type": "uint256"
        }
      ],
      "stateMutability": "nonpayable",
      "type": "function"
    },
    {
      "inputs": [
        {
          "internalType": "uint256",
          "name": "tokenId",
          "type": "uint256"
        }
      ],
      "name": "getApproved",
      "outputs": [
        {
          "internalType": "address",
          "name": "",
          "type": "address"
        }
      ],
      "stateMutability": "view",
      "type": "function"
    },
    {
      "inputs": [
        {
          "internalType": "address",
          "name": "owner",
          "type": "address"
        },
        {
          "internalType": "address",
          "name": "operator",
          "type": "address"
        }
      ],
      "name": "isApprovedForAll",
      "outputs": [
        {
          "internalType": "bool",
          "name": "",
          "type": "bool"
        }
      ],
      "stateMutability": "view",
      "type": "function"
    },
    {
      "inputs": [],
      "name": "name",
      "outputs": [
        {
          "internalType": "string",
          "name": "",
          "type": "string"
        }
      ],
      "stateMutability": "view",
      "type": "function"
    },
    {
      "inputs": [],
      "name": "owner",
      "outputs": [
        {
          "internalType": "address",
          "name": "",
          "type": "address"
        }
      ],
      "stateMutability": "view",
      "type": "function"
    },
    {
      "inputs": [
        {
          "internalType": "uint256",
          "name": "tokenId",
          "type": "uint256"
        }
      ],
      "name": "ownerOf",
      "outputs": [
        {
          "internalType": "address",
          "name": "",
          "type": "address"
        }
      ],
      "stateMutability": "view",
      "type": "function"
    },
    {
      "inputs": [],
      "name": "renounceOwnership",
      "outputs": [],
      "stateMutability": "nonpayable",
      "type": "function"
    },
    {
      "inputs": [
        {
          "internalType": "address",
          "name": "from",
          "type": "address"
        },
        {
          "internalType": "address",
          "name": "to",
          "type": "address"
        },
        {
          "internalType": "uint256",
          "name": "tokenId",
          "type": "uint256"
        }
      ],
      "name": "safeTransferFrom",
      "outputs": [],
      "stateMutability": "nonpayable",
      "type": "function"
    },
    {
      "inputs": [
        {
          "internalType": "address",
          "name": "from",
          "type": "address"
        },
        {
          "internalType": "address",
          "name": "to",
          "type": "address"
        },
        {
          "internalType": "uint256",
          "name": "tokenId",
          "type": "uint256"
        },
        {
          "internalType": "bytes",
          "name": "data",
          "type": "bytes"
        }
      ],
      "name": "safeTransferFrom",
      "outputs": [],
      "stateMutability": "nonpayable",
      "type": "function"
    },
    {
      "inputs": [
        {
          "internalType": "address",
          "name": "operator",
          "type": "address"
        },
        {
          "internalType": "bool",
          "name": "approved",
          "type": "bool"
        }
      ],
      "name": "setApprovalForAll",
      "outputs": [],
      "stateMutability": "nonpayable",
      "type": "function"
    },
    {
      "inputs": [
        {
          "internalType": "bytes4",
          "name": "interfaceId",
          "type": "bytes4"
        }
      ],
      "name": "supportsInterface",
      "outputs": [
        {
          "internalType": "bool",
          "name": "",
          "type": "bool"
        }
      ],
      "stateMutability": "view",
      "type": "function"
    },
    {
      "inputs": [],
      "name": "symbol",
      "outputs": [
        {
          "internalType": "string",
          "name": "",
          "type": "string"
        }
      ],
      "stateMutability": "view",
      "type": "function"
    },
    {
      "inputs": [
        {
          "internalType": "uint256",
          "name": "tokenId",
          "type": "uint256"
        }
      ],
      "name": "tokenURI",
      "outputs": [
        {
          "internalType": "string",
          "name": "",
          "type": "string"
        }
      ],
      "stateMutability": "view",
      "type": "function"
    },
    {
      "inputs": [
        {
          "internalType": "address",
          "name": "from",
          "type": "address"
        },
        {
          "internalType": "address",
          "name": "to",
          "type": "address"
        },
        {
          "internalType": "uint256",
          "name": "tokenId",
          "type": "uint256"
        }
      ],
      "name": "transferFrom",
      "outputs": [],
      "stateMutability": "nonpayable",
      "type": "function"
    },
    {
      "inputs": [
        {
          "internalType": "address",
          "name": "newOwner",
          "type": "address"
        }
      ],
      "name": "transferOwnership",
      "outputs": [],
      "stateMutability": "nonpayable",
      "type": "function"
    }
  ],
  "bytecode": "0x60806040523480156200001157600080fd5b5060405162001b5338038062001b538339810160408190526200003491620001dc565b604080518082018252601081526f4d657461766572736520546f6b656e7360801b60208083019182528351808501909452600384526213515560ea1b908401528151919291620000879160009162000136565b5080516200009d90600190602084019062000136565b505050620000ba620000b4620000e060201b60201c565b620000e4565b600980546001600160a01b0319166001600160a01b039290921691909117905562000249565b3390565b600780546001600160a01b038381166001600160a01b0319831681179093556040519116919082907f8be0079c531659141344cd1fd0a4f28419497f9722a3daafe3b4186f6b6457e090600090a35050565b82805462000144906200020c565b90600052602060002090601f016020900481019282620001685760008555620001b3565b82601f106200018357805160ff1916838001178555620001b3565b82800160010185558215620001b3579182015b82811115620001b357825182559160200191906001019062000196565b50620001c1929150620001c5565b5090565b5b80821115620001c15760008155600101620001c6565b600060208284031215620001ee578081fd5b81516001600160a01b038116811462000205578182fd5b9392505050565b600181811c908216806200022157607f821691505b602082108114156200024357634e487b7160e01b600052602260045260246000fd5b50919050565b6118fa80620002596000396000f3fe608060405234801561001057600080fd5b50600436106101215760003560e01c80636352211e116100ad578063a22cb46511610071578063a22cb46514610257578063b88d4fde1461026a578063c87b56dd1461027d578063e985e9c514610290578063f2fde38b146102cc57600080fd5b80636352211e1461021057806370a0823114610223578063715018a6146102365780638da5cb5b1461023e57806395d89b411461024f57600080fd5b806323b872dd116100f457806323b872dd146101a35780632890e0d7146101b657806342842e0e146101c957806342966c68146101dc57806345576f94146101ef57600080fd5b806301ffc9a71461012657806306fdde031461014e578063081812fc14610163578063095ea7b31461018e575b600080fd5b6101396101343660046115b2565b6102df565b60405190151581526020015b60405180910390f35b610156610331565b60405161014591906116e0565b610176610171366004611630565b6103c3565b6040516001600160a01b039091168152602001610145565b6101a161019c366004611589565b6103ea565b005b6101a16101b136600461149b565b610505565b6101a16101c4366004611630565b610537565b6101a16101d736600461149b565b610543565b6101a16101ea366004611630565b61055e565b6102026101fd3660046115ea565b610583565b604051908152602001610145565b61017661021e366004611630565b6105db565b61020261023136600461144f565b61063b565b6101a16106c1565b6007546001600160a01b0316610176565b6101566106d5565b6101a161026536600461154f565b6106e4565b6101a16102783660046114d6565b6106f3565b61015661028b366004611630565b61072b565b61013961029e366004611469565b6001600160a01b03918216600090815260056020908152604080832093909416825291909152205460ff1690565b6101a16102da36600461144f565b610736565b60006001600160e01b031982166380ac58cd60e01b148061031057506001600160e01b03198216635b5e139f60e01b145b8061032b57506301ffc9a760e01b6001600160e01b03198316145b92915050565b60606000805461034090611802565b80601f016020809104026020016040519081016040528092919081815260200182805461036c90611802565b80156103b95780601f1061038e576101008083540402835291602001916103b9565b820191906000526020600020905b81548152906001019060200180831161039c57829003601f168201915b5050505050905090565b60006103ce826107ac565b506000908152600460205260409020546001600160a01b031690565b60006103f5826105db565b9050806001600160a01b0316836001600160a01b031614156104685760405162461bcd60e51b815260206004820152602160248201527f4552433732313a20617070726f76616c20746f2063757272656e74206f776e656044820152603960f91b60648201526084015b60405180910390fd5b336001600160a01b03821614806104845750610484813361029e565b6104f65760405162461bcd60e51b815260206004820152603e60248201527f4552433732313a20617070726f76652063616c6c6572206973206e6f7420746f60448201527f6b656e206f776e6572206e6f7220617070726f76656420666f7220616c6c0000606482015260840161045f565b610500838361080b565b505050565b610510335b82610879565b61052c5760405162461bcd60e51b815260040161045f90611745565b6105008383836108f8565b61054081610a94565b50565b610500838383604051806020016040528060008152506106f3565b6105673361050a565b6105375760405162461bcd60e51b815260040161045f90611745565b600061058d610a9d565b61059b600880546001019055565b60006105a660085490565b90506105b23382610af7565b6105bc8184610b11565b6009546105d3906001600160a01b031660016106e4565b90505b919050565b6000818152600260205260408120546001600160a01b0316806105d35760405162461bcd60e51b8152602060048201526018602482015277115490cdcc8c4e881a5b9d985b1a59081d1bdad95b88125160421b604482015260640161045f565b60006001600160a01b0382166106a55760405162461bcd60e51b815260206004820152602960248201527f4552433732313a2061646472657373207a65726f206973206e6f7420612076616044820152683634b21037bbb732b960b91b606482015260840161045f565b506001600160a01b031660009081526003602052604090205490565b6106c9610a9d565b6106d36000610bab565b565b60606001805461034090611802565b6106ef338383610bfd565b5050565b6106fd3383610879565b6107195760405162461bcd60e51b815260040161045f90611745565b61072584848484610ccc565b50505050565b606061032b82610cff565b61073e610a9d565b6001600160a01b0381166107a35760405162461bcd60e51b815260206004820152602660248201527f4f776e61626c653a206e6577206f776e657220697320746865207a65726f206160448201526564647265737360d01b606482015260840161045f565b61054081610bab565b6000818152600260205260409020546001600160a01b03166105405760405162461bcd60e51b8152602060048201526018602482015277115490cdcc8c4e881a5b9d985b1a59081d1bdad95b88125160421b604482015260640161045f565b600081815260046020526040902080546001600160a01b0319166001600160a01b0384169081179091558190610840826105db565b6001600160a01b03167f8c5be1e5ebec7d5bd14f71427d1e84f3dd0314c0f7b2291e5b200ac8c7c3b92560405160405180910390a45050565b600080610885836105db565b9050806001600160a01b0316846001600160a01b031614806108cc57506001600160a01b0380821660009081526005602090815260408083209388168352929052205460ff165b806108f05750836001600160a01b03166108e5846103c3565b6001600160a01b0316145b949350505050565b826001600160a01b031661090b826105db565b6001600160a01b03161461096f5760405162461bcd60e51b815260206004820152602560248201527f4552433732313a207472616e736665722066726f6d20696e636f72726563742060448201526437bbb732b960d91b606482015260840161045f565b6001600160a01b0382166109d15760405162461bcd60e51b8152602060048201526024808201527f4552433732313a207472616e7366657220746f20746865207a65726f206164646044820152637265737360e01b606482015260840161045f565b6109dc60008261080b565b6001600160a01b0383166000908152600360205260408120805460019290610a059084906117bf565b90915550506001600160a01b0382166000908152600360205260408120805460019290610a33908490611793565b909155505060008181526002602052604080822080546001600160a01b0319166001600160a01b0386811691821790925591518493918716917fddf252ad1be2c89b69c2b068fc378daa952ba7f163c4a11628f55a4df523b3ef91a4505050565b61054081610e08565b6007546001600160a01b031633146106d35760405162461bcd60e51b815260206004820181905260248201527f4f776e61626c653a2063616c6c6572206973206e6f7420746865206f776e6572604482015260640161045f565b6106ef828260405180602001604052806000815250610e48565b6000828152600260205260409020546001600160a01b0316610b8c5760405162461bcd60e51b815260206004820152602e60248201527f45524337323155524953746f726167653a2055524920736574206f66206e6f6e60448201526d32bc34b9ba32b73a103a37b5b2b760911b606482015260840161045f565b60008281526006602090815260409091208251610500928401906112f3565b600780546001600160a01b038381166001600160a01b0319831681179093556040519116919082907f8be0079c531659141344cd1fd0a4f28419497f9722a3daafe3b4186f6b6457e090600090a35050565b816001600160a01b0316836001600160a01b03161415610c5f5760405162461bcd60e51b815260206004820152601960248201527f4552433732313a20617070726f766520746f2063616c6c657200000000000000604482015260640161045f565b6001600160a01b03838116600081815260056020908152604080832094871680845294825291829020805460ff191686151590811790915591519182527f17307eab39ab6107e8899845ad3d59bd9653f200f220920489ca2b5937696c31910160405180910390a3505050565b610cd78484846108f8565b610ce384848484610e7b565b6107255760405162461bcd60e51b815260040161045f906116f3565b6060610d0a826107ac565b60008281526006602052604081208054610d2390611802565b80601f0160208091040260200160405190810160405280929190818152602001828054610d4f90611802565b8015610d9c5780601f10610d7157610100808354040283529160200191610d9c565b820191906000526020600020905b815481529060010190602001808311610d7f57829003601f168201915b505050505090506000610dba60408051602081019091526000815290565b9050805160001415610dcd575092915050565b815115610dff578082604051602001610de7929190611674565b60405160208183030381529060405292505050919050565b6108f084610f88565b610e1181610ffc565b60008181526006602052604090208054610e2a90611802565b15905061054057600081815260066020526040812061054091611377565b610e528383611097565b610e5f6000848484610e7b565b6105005760405162461bcd60e51b815260040161045f906116f3565b60006001600160a01b0384163b15610f7d57604051630a85bd0160e11b81526001600160a01b0385169063150b7a0290610ebf9033908990889088906004016116a3565b602060405180830381600087803b158015610ed957600080fd5b505af1925050508015610f09575060408051601f3d908101601f19168201909252610f06918101906115ce565b60015b610f63573d808015610f37576040519150601f19603f3d011682016040523d82523d6000602084013e610f3c565b606091505b508051610f5b5760405162461bcd60e51b815260040161045f906116f3565b805181602001fd5b6001600160e01b031916630a85bd0160e11b1490506108f0565b506001949350505050565b6060610f93826107ac565b6000610faa60408051602081019091526000815290565b90506000815111610fca5760405180602001604052806000815250610ff5565b80610fd4846111d9565b604051602001610fe5929190611674565b6040516020818303038152906040525b9392505050565b6000611007826105db565b905061101460008361080b565b6001600160a01b038116600090815260036020526040812080546001929061103d9084906117bf565b909155505060008281526002602052604080822080546001600160a01b0319169055518391906001600160a01b038416907fddf252ad1be2c89b69c2b068fc378daa952ba7f163c4a11628f55a4df523b3ef908390a45050565b6001600160a01b0382166110ed5760405162461bcd60e51b815260206004820181905260248201527f4552433732313a206d696e7420746f20746865207a65726f2061646472657373604482015260640161045f565b6000818152600260205260409020546001600160a01b0316156111525760405162461bcd60e51b815260206004820152601c60248201527f4552433732313a20746f6b656e20616c7265616479206d696e74656400000000604482015260640161045f565b6001600160a01b038216600090815260036020526040812080546001929061117b908490611793565b909155505060008181526002602052604080822080546001600160a01b0319166001600160a01b03861690811790915590518392907fddf252ad1be2c89b69c2b068fc378daa952ba7f163c4a11628f55a4df523b3ef908290a45050565b6060816111fd5750506040805180820190915260018152600360fc1b602082015290565b8160005b811561122757806112118161183d565b91506112209050600a836117ab565b9150611201565b60008167ffffffffffffffff81111561125057634e487b7160e01b600052604160045260246000fd5b6040519080825280601f01601f19166020018201604052801561127a576020820181803683370190505b5090505b84156108f05761128f6001836117bf565b915061129c600a86611858565b6112a7906030611793565b60f81b8183815181106112ca57634e487b7160e01b600052603260045260246000fd5b60200101906001600160f81b031916908160001a9053506112ec600a866117ab565b945061127e565b8280546112ff90611802565b90600052602060002090601f0160209004810192826113215760008555611367565b82601f1061133a57805160ff1916838001178555611367565b82800160010185558215611367579182015b8281111561136757825182559160200191906001019061134c565b506113739291506113ad565b5090565b50805461138390611802565b6000825580601f10611393575050565b601f01602090049060005260206000209081019061054091905b5b8082111561137357600081556001016113ae565b600067ffffffffffffffff808411156113dd576113dd611898565b604051601f8501601f19908116603f0116810190828211818310171561140557611405611898565b8160405280935085815286868601111561141e57600080fd5b858560208301376000602087830101525050509392505050565b80356001600160a01b03811681146105d657600080fd5b600060208284031215611460578081fd5b610ff582611438565b6000806040838503121561147b578081fd5b61148483611438565b915061149260208401611438565b90509250929050565b6000806000606084860312156114af578081fd5b6114b884611438565b92506114c660208501611438565b9150604084013590509250925092565b600080600080608085870312156114eb578081fd5b6114f485611438565b935061150260208601611438565b925060408501359150606085013567ffffffffffffffff811115611524578182fd5b8501601f81018713611534578182fd5b611543878235602084016113c2565b91505092959194509250565b60008060408385031215611561578182fd5b61156a83611438565b91506020830135801515811461157e578182fd5b809150509250929050565b6000806040838503121561159b578182fd5b6115a483611438565b946020939093013593505050565b6000602082840312156115c3578081fd5b8135610ff5816118ae565b6000602082840312156115df578081fd5b8151610ff5816118ae565b6000602082840312156115fb578081fd5b813567ffffffffffffffff811115611611578182fd5b8201601f81018413611621578182fd5b6108f0848235602084016113c2565b600060208284031215611641578081fd5b5035919050565b600081518084526116608160208601602086016117d6565b601f01601f19169290920160200192915050565b600083516116868184602088016117d6565b83519083019061169a8183602088016117d6565b01949350505050565b6001600160a01b03858116825284166020820152604081018390526080606082018190526000906116d690830184611648565b9695505050505050565b602081526000610ff56020830184611648565b60208082526032908201527f4552433732313a207472616e7366657220746f206e6f6e20455243373231526560408201527131b2b4bb32b91034b6b83632b6b2b73a32b960711b606082015260800190565b6020808252602e908201527f4552433732313a2063616c6c6572206973206e6f7420746f6b656e206f776e6560408201526d1c881b9bdc88185c1c1c9bdd995960921b606082015260800190565b600082198211156117a6576117a661186c565b500190565b6000826117ba576117ba611882565b500490565b6000828210156117d1576117d161186c565b500390565b60005b838110156117f15781810151838201526020016117d9565b838111156107255750506000910152565b600181811c9082168061181657607f821691505b6020821081141561183757634e487b7160e01b600052602260045260246000fd5b50919050565b60006000198214156118515761185161186c565b5060010190565b60008261186757611867611882565b500690565b634e487b7160e01b600052601160045260246000fd5b634e487b7160e01b600052601260045260246000fd5b634e487b7160e01b600052604160045260246000fd5b6001600160e01b03198116811461054057600080fdfea2646970667358221220a1bc4d0476fe292fb6b8e1441c38dc1d6f2dfa290eae873784832b7faf602d5864736f6c63430008040033",
  "linkReferences": {},
  "deployedLinkReferences": {}
}