{
  "_format": "hh-sol-artifact-1",
  "contractName": "NFT",
  "sourceName": "contracts/NFT.sol",
  "abi": [
    {
      "inputs": [
        {
          "internalType": "address",
          "name": "marketplaceAddress",
          "type": "address"
        }
      ],
      "stateMutability": "nonpayable",
      "type": "constructor"
    },
    {
      "anonymous": false,
      "inputs": [
        {
          "indexed": true,
          "internalType": "address",
          "name": "owner",
          "type": "address"
        },
        {
          "indexed": true,
          "internalType": "address",
          "name": "approved",
          "type": "address"
        },
        {
          "indexed": true,
          "internalType": "uint256",
          "name": "tokenId",
          "type": "uint256"
        }
      ],
      "name": "Approval",
      "type": "event"
    },
    {
      "anonymous": false,
      "inputs": [
        {
          "indexed": true,
          "internalType": "address",
          "name": "owner",
          "type": "address"
        },
        {
          "indexed": true,
          "internalType": "address",
          "name": "operator",
          "type": "address"
        },
        {
          "indexed": false,
          "internalType": "bool",
          "name": "approved",
          "type": "bool"
        }
      ],
      "name": "ApprovalForAll",
      "type": "event"
    },
    {
      "anonymous": false,
      "inputs": [
        {
          "indexed": true,
          "internalType": "address",
          "name": "from",
          "type": "address"
        },
        {
          "indexed": true,
          "internalType": "address",
          "name": "to",
          "type": "address"
        },
        {
          "indexed": true,
          "internalType": "uint256",
          "name": "tokenId",
          "type": "uint256"
        }
      ],
      "name": "Transfer",
      "type": "event"
    },
    {
      "inputs": [
        {
          "internalType": "address",
          "name": "to",
          "type": "address"
        },
        {
          "internalType": "uint256",
          "name": "tokenId",
          "type": "uint256"
        }
      ],
      "name": "approve",
      "outputs": [],
      "stateMutability": "nonpayable",
      "type": "function"
    },
    {
      "inputs": [
        {
          "internalType": "address",
          "name": "owner",
          "type": "address"
        }
      ],
      "name": "balanceOf",
      "outputs": [
        {
          "internalType": "uint256",
          "name": "",
          "type": "uint256"
        }
      ],
      "stateMutability": "view",
      "type": "function"
    },
    {
      "inputs": [
        {
          "internalType": "uint256",
          "name": "tokenId",
          "type": "uint256"
        }
      ],
      "name": "burn",
      "outputs": [],
      "stateMutability": "nonpayable",
      "type": "function"
    },
    {
      "inputs": [
        {
          "internalType": "uint256",
          "name": "tokenId",
          "type": "uint256"
        }
      ],
      "name": "burnNFT",
      "outputs": [],
      "stateMutability": "nonpayable",
      "type": "function"
    },
    {
      "inputs": [
        {
          "internalType": "string",
          "name": "uri",
          "type": "string"
        }
      ],
      "name": "createToken",
      "outputs": [
        {
          "internalType": "uint256",
          "name": "",
          "type": "uint256"
        }
      ],
      "stateMutability": "nonpayable",
      "type": "function"
    },
    {
      "inputs": [
        {
          "internalType": "uint256",
          "name": "tokenId",
          "type": "uint256"
        }
      ],
      "name": "getApproved",
      "outputs": [
        {
          "internalType": "address",
          "name": "",
          "type": "address"
        }
      ],
      "stateMutability": "view",
      "type": "function"
    },
    {
      "inputs": [
        {
          "internalType": "address",
          "name": "owner",
          "type": "address"
        },
        {
          "internalType": "address",
          "name": "operator",
          "type": "address"
        }
      ],
      "name": "isApprovedForAll",
      "outputs": [
        {
          "internalType": "bool",
          "name": "",
          "type": "bool"
        }
      ],
      "stateMutability": "view",
      "type": "function"
    },
    {
      "inputs": [],
      "name": "name",
      "outputs": [
        {
          "internalType": "string",
          "name": "",
          "type": "string"
        }
      ],
      "stateMutability": "view",
      "type": "function"
    },
    {
      "inputs": [
        {
          "internalType": "uint256",
          "name": "tokenId",
          "type": "uint256"
        }
      ],
      "name": "ownerOf",
      "outputs": [
        {
          "internalType": "address",
          "name": "",
          "type": "address"
        }
      ],
      "stateMutability": "view",
      "type": "function"
    },
    {
      "inputs": [
        {
          "internalType": "address",
          "name": "from",
          "type": "address"
        },
        {
          "internalType": "address",
          "name": "to",
          "type": "address"
        },
        {
          "internalType": "uint256",
          "name": "tokenId",
          "type": "uint256"
        }
      ],
      "name": "safeTransferFrom",
      "outputs": [],
      "stateMutability": "nonpayable",
      "type": "function"
    },
    {
      "inputs": [
        {
          "internalType": "address",
          "name": "from",
          "type": "address"
        },
        {
          "internalType": "address",
          "name": "to",
          "type": "address"
        },
        {
          "internalType": "uint256",
          "name": "tokenId",
          "type": "uint256"
        },
        {
          "internalType": "bytes",
          "name": "data",
          "type": "bytes"
        }
      ],
      "name": "safeTransferFrom",
      "outputs": [],
      "stateMutability": "nonpayable",
      "type": "function"
    },
    {
      "inputs": [
        {
          "internalType": "address",
          "name": "operator",
          "type": "address"
        },
        {
          "internalType": "bool",
          "name": "approved",
          "type": "bool"
        }
      ],
      "name": "setApprovalForAll",
      "outputs": [],
      "stateMutability": "nonpayable",
      "type": "function"
    },
    {
      "inputs": [
        {
          "internalType": "bytes4",
          "name": "interfaceId",
          "type": "bytes4"
        }
      ],
      "name": "supportsInterface",
      "outputs": [
        {
          "internalType": "bool",
          "name": "",
          "type": "bool"
        }
      ],
      "stateMutability": "view",
      "type": "function"
    },
    {
      "inputs": [],
      "name": "symbol",
      "outputs": [
        {
          "internalType": "string",
          "name": "",
          "type": "string"
        }
      ],
      "stateMutability": "view",
      "type": "function"
    },
    {
      "inputs": [
        {
          "internalType": "uint256",
          "name": "tokenId",
          "type": "uint256"
        }
      ],
      "name": "tokenURI",
      "outputs": [
        {
          "internalType": "string",
          "name": "",
          "type": "string"
        }
      ],
      "stateMutability": "view",
      "type": "function"
    },
    {
      "inputs": [
        {
          "internalType": "address",
          "name": "from",
          "type": "address"
        },
        {
          "internalType": "address",
          "name": "to",
          "type": "address"
        },
        {
          "internalType": "uint256",
          "name": "tokenId",
          "type": "uint256"
        }
      ],
      "name": "transferFrom",
      "outputs": [],
      "stateMutability": "nonpayable",
      "type": "function"
    }
  ],
  "bytecode": "0x60806040523480156200001157600080fd5b50604051620019563803806200195683398101604081905262000034916200016d565b604080518082018252601081526f4d657461766572736520546f6b656e7360801b60208083019182528351808501909452600384526213515560ea1b9084015281519192916200008791600091620000c7565b5080516200009d906001906020840190620000c7565b5050600a80546001600160a01b0319166001600160a01b03939093169290921790915550620001da565b828054620000d5906200019d565b90600052602060002090601f016020900481019282620000f9576000855562000144565b82601f106200011457805160ff191683800117855562000144565b8280016001018555821562000144579182015b828111156200014457825182559160200191906001019062000127565b506200015292915062000156565b5090565b5b8082111562000152576000815560010162000157565b6000602082840312156200017f578081fd5b81516001600160a01b038116811462000196578182fd5b9392505050565b600181811c90821680620001b257607f821691505b60208210811415620001d457634e487b7160e01b600052602260045260246000fd5b50919050565b61176c80620001ea6000396000f3fe608060405234801561001057600080fd5b50600436106101005760003560e01c806345576f9411610097578063a22cb46511610066578063a22cb4651461021d578063b88d4fde14610230578063c87b56dd14610243578063e985e9c51461025657600080fd5b806345576f94146101ce5780636352211e146101ef57806370a082311461020257806395d89b411461021557600080fd5b806323b872dd116100d357806323b872dd146101825780632890e0d71461019557806342842e0e146101a857806342966c68146101bb57600080fd5b806301ffc9a71461010557806306fdde031461012d578063081812fc14610142578063095ea7b31461016d575b600080fd5b610118610113366004611424565b610292565b60405190151581526020015b60405180910390f35b6101356102e4565b6040516101249190611552565b6101556101503660046114a2565b610376565b6040516001600160a01b039091168152602001610124565b61018061017b3660046113fb565b61039d565b005b61018061019036600461130d565b6104b8565b6101806101a33660046114a2565b6104ea565b6101806101b636600461130d565b6104f6565b6101806101c93660046114a2565b610511565b6101e16101dc36600461145c565b610536565b604051908152602001610124565b6101556101fd3660046114a2565b61057e565b6101e16102103660046112c1565b6105de565b610135610664565b61018061022b3660046113c1565b610673565b61018061023e366004611348565b610682565b6101356102513660046114a2565b6106ba565b6101186102643660046112db565b6001600160a01b03918216600090815260056020908152604080832093909416825291909152205460ff1690565b60006001600160e01b031982166380ac58cd60e01b14806102c357506001600160e01b03198216635b5e139f60e01b145b806102de57506301ffc9a760e01b6001600160e01b03198316145b92915050565b6060600080546102f390611674565b80601f016020809104026020016040519081016040528092919081815260200182805461031f90611674565b801561036c5780601f106103415761010080835404028352916020019161036c565b820191906000526020600020905b81548152906001019060200180831161034f57829003601f168201915b5050505050905090565b6000610381826106c5565b506000908152600460205260409020546001600160a01b031690565b60006103a88261057e565b9050806001600160a01b0316836001600160a01b0316141561041b5760405162461bcd60e51b815260206004820152602160248201527f4552433732313a20617070726f76616c20746f2063757272656e74206f776e656044820152603960f91b60648201526084015b60405180910390fd5b336001600160a01b038216148061043757506104378133610264565b6104a95760405162461bcd60e51b815260206004820152603e60248201527f4552433732313a20617070726f76652063616c6c6572206973206e6f7420746f60448201527f6b656e206f776e6572206e6f7220617070726f76656420666f7220616c6c00006064820152608401610412565b6104b38383610724565b505050565b6104c3335b82610792565b6104df5760405162461bcd60e51b8152600401610412906115b7565b6104b3838383610811565b6104f3816109ad565b50565b6104b383838360405180602001604052806000815250610682565b61051a336104bd565b6104ea5760405162461bcd60e51b8152600401610412906115b7565b6000610546600980546001019055565b600061055160095490565b905061055d33826109b6565b61056781846109d0565b600a546102de906001600160a01b03166001610673565b6000818152600260205260408120546001600160a01b0316806102de5760405162461bcd60e51b8152602060048201526018602482015277115490cdcc8c4e881a5b9d985b1a59081d1bdad95b88125160421b6044820152606401610412565b60006001600160a01b0382166106485760405162461bcd60e51b815260206004820152602960248201527f4552433732313a2061646472657373207a65726f206973206e6f7420612076616044820152683634b21037bbb732b960b91b6064820152608401610412565b506001600160a01b031660009081526003602052604090205490565b6060600180546102f390611674565b61067e338383610a6a565b5050565b61068c3383610792565b6106a85760405162461bcd60e51b8152600401610412906115b7565b6106b484848484610b39565b50505050565b60606102de82610b6c565b6000818152600260205260409020546001600160a01b03166104f35760405162461bcd60e51b8152602060048201526018602482015277115490cdcc8c4e881a5b9d985b1a59081d1bdad95b88125160421b6044820152606401610412565b600081815260046020526040902080546001600160a01b0319166001600160a01b03841690811790915581906107598261057e565b6001600160a01b03167f8c5be1e5ebec7d5bd14f71427d1e84f3dd0314c0f7b2291e5b200ac8c7c3b92560405160405180910390a45050565b60008061079e8361057e565b9050806001600160a01b0316846001600160a01b031614806107e557506001600160a01b0380821660009081526005602090815260408083209388168352929052205460ff165b806108095750836001600160a01b03166107fe84610376565b6001600160a01b0316145b949350505050565b826001600160a01b03166108248261057e565b6001600160a01b0316146108885760405162461bcd60e51b815260206004820152602560248201527f4552433732313a207472616e736665722066726f6d20696e636f72726563742060448201526437bbb732b960d91b6064820152608401610412565b6001600160a01b0382166108ea5760405162461bcd60e51b8152602060048201526024808201527f4552433732313a207472616e7366657220746f20746865207a65726f206164646044820152637265737360e01b6064820152608401610412565b6108f5600082610724565b6001600160a01b038316600090815260036020526040812080546001929061091e908490611631565b90915550506001600160a01b038216600090815260036020526040812080546001929061094c908490611605565b909155505060008181526002602052604080822080546001600160a01b0319166001600160a01b0386811691821790925591518493918716917fddf252ad1be2c89b69c2b068fc378daa952ba7f163c4a11628f55a4df523b3ef91a4505050565b6104f381610c75565b61067e828260405180602001604052806000815250610cb5565b6000828152600260205260409020546001600160a01b0316610a4b5760405162461bcd60e51b815260206004820152602e60248201527f45524337323155524953746f726167653a2055524920736574206f66206e6f6e60448201526d32bc34b9ba32b73a103a37b5b2b760911b6064820152608401610412565b600082815260066020908152604090912082516104b392840190611160565b816001600160a01b0316836001600160a01b03161415610acc5760405162461bcd60e51b815260206004820152601960248201527f4552433732313a20617070726f766520746f2063616c6c6572000000000000006044820152606401610412565b6001600160a01b03838116600081815260056020908152604080832094871680845294825291829020805460ff191686151590811790915591519182527f17307eab39ab6107e8899845ad3d59bd9653f200f220920489ca2b5937696c31910160405180910390a3505050565b610b44848484610811565b610b5084848484610ce8565b6106b45760405162461bcd60e51b815260040161041290611565565b6060610b77826106c5565b60008281526006602052604081208054610b9090611674565b80601f0160208091040260200160405190810160405280929190818152602001828054610bbc90611674565b8015610c095780601f10610bde57610100808354040283529160200191610c09565b820191906000526020600020905b815481529060010190602001808311610bec57829003601f168201915b505050505090506000610c2760408051602081019091526000815290565b9050805160001415610c3a575092915050565b815115610c6c578082604051602001610c549291906114e6565b60405160208183030381529060405292505050919050565b61080984610df5565b610c7e81610e69565b60008181526006602052604090208054610c9790611674565b1590506104f35760008181526006602052604081206104f3916111e4565b610cbf8383610f04565b610ccc6000848484610ce8565b6104b35760405162461bcd60e51b815260040161041290611565565b60006001600160a01b0384163b15610dea57604051630a85bd0160e11b81526001600160a01b0385169063150b7a0290610d2c903390899088908890600401611515565b602060405180830381600087803b158015610d4657600080fd5b505af1925050508015610d76575060408051601f3d908101601f19168201909252610d7391810190611440565b60015b610dd0573d808015610da4576040519150601f19603f3d011682016040523d82523d6000602084013e610da9565b606091505b508051610dc85760405162461bcd60e51b815260040161041290611565565b805181602001fd5b6001600160e01b031916630a85bd0160e11b149050610809565b506001949350505050565b6060610e00826106c5565b6000610e1760408051602081019091526000815290565b90506000815111610e375760405180602001604052806000815250610e62565b80610e4184611046565b604051602001610e529291906114e6565b6040516020818303038152906040525b9392505050565b6000610e748261057e565b9050610e81600083610724565b6001600160a01b0381166000908152600360205260408120805460019290610eaa908490611631565b909155505060008281526002602052604080822080546001600160a01b0319169055518391906001600160a01b038416907fddf252ad1be2c89b69c2b068fc378daa952ba7f163c4a11628f55a4df523b3ef908390a45050565b6001600160a01b038216610f5a5760405162461bcd60e51b815260206004820181905260248201527f4552433732313a206d696e7420746f20746865207a65726f20616464726573736044820152606401610412565b6000818152600260205260409020546001600160a01b031615610fbf5760405162461bcd60e51b815260206004820152601c60248201527f4552433732313a20746f6b656e20616c7265616479206d696e746564000000006044820152606401610412565b6001600160a01b0382166000908152600360205260408120805460019290610fe8908490611605565b909155505060008181526002602052604080822080546001600160a01b0319166001600160a01b03861690811790915590518392907fddf252ad1be2c89b69c2b068fc378daa952ba7f163c4a11628f55a4df523b3ef908290a45050565b60608161106a5750506040805180820190915260018152600360fc1b602082015290565b8160005b8115611094578061107e816116af565b915061108d9050600a8361161d565b915061106e565b60008167ffffffffffffffff8111156110bd57634e487b7160e01b600052604160045260246000fd5b6040519080825280601f01601f1916602001820160405280156110e7576020820181803683370190505b5090505b8415610809576110fc600183611631565b9150611109600a866116ca565b611114906030611605565b60f81b81838151811061113757634e487b7160e01b600052603260045260246000fd5b60200101906001600160f81b031916908160001a905350611159600a8661161d565b94506110eb565b82805461116c90611674565b90600052602060002090601f01602090048101928261118e57600085556111d4565b82601f106111a757805160ff19168380011785556111d4565b828001600101855582156111d4579182015b828111156111d45782518255916020019190600101906111b9565b506111e092915061121a565b5090565b5080546111f090611674565b6000825580601f10611200575050565b601f0160209004906000526020600020908101906104f391905b5b808211156111e0576000815560010161121b565b600067ffffffffffffffff8084111561124a5761124a61170a565b604051601f8501601f19908116603f011681019082821181831017156112725761127261170a565b8160405280935085815286868601111561128b57600080fd5b858560208301376000602087830101525050509392505050565b80356001600160a01b03811681146112bc57600080fd5b919050565b6000602082840312156112d2578081fd5b610e62826112a5565b600080604083850312156112ed578081fd5b6112f6836112a5565b9150611304602084016112a5565b90509250929050565b600080600060608486031215611321578081fd5b61132a846112a5565b9250611338602085016112a5565b9150604084013590509250925092565b6000806000806080858703121561135d578081fd5b611366856112a5565b9350611374602086016112a5565b925060408501359150606085013567ffffffffffffffff811115611396578182fd5b8501601f810187136113a6578182fd5b6113b58782356020840161122f565b91505092959194509250565b600080604083850312156113d3578182fd5b6113dc836112a5565b9150602083013580151581146113f0578182fd5b809150509250929050565b6000806040838503121561140d578182fd5b611416836112a5565b946020939093013593505050565b600060208284031215611435578081fd5b8135610e6281611720565b600060208284031215611451578081fd5b8151610e6281611720565b60006020828403121561146d578081fd5b813567ffffffffffffffff811115611483578182fd5b8201601f81018413611493578182fd5b6108098482356020840161122f565b6000602082840312156114b3578081fd5b5035919050565b600081518084526114d2816020860160208601611648565b601f01601f19169290920160200192915050565b600083516114f8818460208801611648565b83519083019061150c818360208801611648565b01949350505050565b6001600160a01b0385811682528416602082015260408101839052608060608201819052600090611548908301846114ba565b9695505050505050565b602081526000610e6260208301846114ba565b60208082526032908201527f4552433732313a207472616e7366657220746f206e6f6e20455243373231526560408201527131b2b4bb32b91034b6b83632b6b2b73a32b960711b606082015260800190565b6020808252602e908201527f4552433732313a2063616c6c6572206973206e6f7420746f6b656e206f776e6560408201526d1c881b9bdc88185c1c1c9bdd995960921b606082015260800190565b60008219821115611618576116186116de565b500190565b60008261162c5761162c6116f4565b500490565b600082821015611643576116436116de565b500390565b60005b8381101561166357818101518382015260200161164b565b838111156106b45750506000910152565b600181811c9082168061168857607f821691505b602082108114156116a957634e487b7160e01b600052602260045260246000fd5b50919050565b60006000198214156116c3576116c36116de565b5060010190565b6000826116d9576116d96116f4565b500690565b634e487b7160e01b600052601160045260246000fd5b634e487b7160e01b600052601260045260246000fd5b634e487b7160e01b600052604160045260246000fd5b6001600160e01b0319811681146104f357600080fdfea2646970667358221220044a5998718e76ba4ae7bddeae02877c936faf3cbd14036fb940017a80086ba364736f6c63430008040033",
  "linkReferences": {},
  "deployedLinkReferences": {}
}