{
  "_format": "hh-sol-artifact-1",
  "contractName": "NFTWarranty",
  "sourceName": "contracts/NFTWarranty.sol",
  "abi": [
    {
      "inputs": [],
      "stateMutability": "payable",
      "type": "constructor"
    },
    {
      "anonymous": false,
      "inputs": [
        {
          "indexed": true,
          "internalType": "address",
          "name": "owner",
          "type": "address"
        },
        {
          "indexed": true,
          "internalType": "address",
          "name": "approved",
          "type": "address"
        },
        {
          "indexed": true,
          "internalType": "uint256",
          "name": "tokenId",
          "type": "uint256"
        }
      ],
      "name": "Approval",
      "type": "event"
    },
    {
      "anonymous": false,
      "inputs": [
        {
          "indexed": true,
          "internalType": "address",
          "name": "owner",
          "type": "address"
        },
        {
          "indexed": true,
          "internalType": "address",
          "name": "operator",
          "type": "address"
        },
        {
          "indexed": false,
          "internalType": "bool",
          "name": "approved",
          "type": "bool"
        }
      ],
      "name": "ApprovalForAll",
      "type": "event"
    },
    {
      "anonymous": false,
      "inputs": [
        {
          "indexed": true,
          "internalType": "address",
          "name": "from",
          "type": "address"
        },
        {
          "indexed": true,
          "internalType": "address",
          "name": "to",
          "type": "address"
        },
        {
          "indexed": true,
          "internalType": "uint256",
          "name": "tokenId",
          "type": "uint256"
        }
      ],
      "name": "Transfer",
      "type": "event"
    },
    {
      "anonymous": false,
      "inputs": [
        {
          "indexed": true,
          "internalType": "uint256",
          "name": "itemId",
          "type": "uint256"
        },
        {
          "indexed": true,
          "internalType": "uint256",
          "name": "tokenId",
          "type": "uint256"
        },
        {
          "indexed": false,
          "internalType": "address",
          "name": "seller",
          "type": "address"
        },
        {
          "indexed": false,
          "internalType": "address",
          "name": "owner",
          "type": "address"
        },
        {
          "indexed": false,
          "internalType": "uint256",
          "name": "startDate",
          "type": "uint256"
        },
        {
          "indexed": false,
          "internalType": "string",
          "name": "productUrl",
          "type": "string"
        },
        {
          "indexed": false,
          "internalType": "bool",
          "name": "active",
          "type": "bool"
        },
        {
          "indexed": false,
          "internalType": "uint256",
          "name": "period",
          "type": "uint256"
        },
        {
          "indexed": false,
          "internalType": "string",
          "name": "sno",
          "type": "string"
        },
        {
          "indexed": false,
          "internalType": "uint256",
          "name": "incrementPrice",
          "type": "uint256"
        }
      ],
      "name": "WarrantyItemCreated",
      "type": "event"
    },
    {
      "inputs": [
        {
          "internalType": "address",
          "name": "to",
          "type": "address"
        },
        {
          "internalType": "uint256",
          "name": "tokenId",
          "type": "uint256"
        }
      ],
      "name": "approve",
      "outputs": [],
      "stateMutability": "nonpayable",
      "type": "function"
    },
    {
      "inputs": [
        {
          "internalType": "address",
          "name": "owner",
          "type": "address"
        }
      ],
      "name": "balanceOf",
      "outputs": [
        {
          "internalType": "uint256",
          "name": "",
          "type": "uint256"
        }
      ],
      "stateMutability": "view",
      "type": "function"
    },
    {
      "inputs": [
        {
          "internalType": "uint256",
          "name": "tokenId",
          "type": "uint256"
        }
      ],
      "name": "burnNFT",
      "outputs": [
        {
          "internalType": "bool",
          "name": "",
          "type": "bool"
        }
      ],
      "stateMutability": "nonpayable",
      "type": "function"
    },
    {
      "inputs": [
        {
          "internalType": "uint256",
          "name": "itemId",
          "type": "uint256"
        }
      ],
      "name": "checkIfExpired",
      "outputs": [
        {
          "internalType": "bool",
          "name": "",
          "type": "bool"
        }
      ],
      "stateMutability": "view",
      "type": "function"
    },
    {
      "inputs": [
        {
          "internalType": "string",
          "name": "uri",
          "type": "string"
        },
        {
          "internalType": "uint256",
          "name": "period",
          "type": "uint256"
        },
        {
          "internalType": "string",
          "name": "sno",
          "type": "string"
        },
        {
          "internalType": "uint256",
          "name": "incrementPrice",
          "type": "uint256"
        }
      ],
      "name": "createToken",
      "outputs": [
        {
          "internalType": "uint256",
          "name": "",
          "type": "uint256"
        }
      ],
      "stateMutability": "nonpayable",
      "type": "function"
    },
    {
      "inputs": [],
      "name": "fetchMyExpiredWarrantyItems",
      "outputs": [
        {
          "components": [
            {
              "internalType": "uint256",
              "name": "itemId",
              "type": "uint256"
            },
            {
              "internalType": "uint256",
              "name": "tokenId",
              "type": "uint256"
            },
            {
              "internalType": "address",
              "name": "seller",
              "type": "address"
            },
            {
              "internalType": "address payable",
              "name": "owner",
              "type": "address"
            },
            {
              "internalType": "uint256",
              "name": "startDate",
              "type": "uint256"
            },
            {
              "internalType": "string",
              "name": "productUrl",
              "type": "string"
            },
            {
              "internalType": "bool",
              "name": "active",
              "type": "bool"
            },
            {
              "internalType": "uint256",
              "name": "period",
              "type": "uint256"
            },
            {
              "internalType": "string",
              "name": "sno",
              "type": "string"
            },
            {
              "internalType": "uint256",
              "name": "incrementPrice",
              "type": "uint256"
            }
          ],
          "internalType": "struct NFTWarranty.WarrantyItem[]",
          "name": "",
          "type": "tuple[]"
        }
      ],
      "stateMutability": "view",
      "type": "function"
    },
    {
      "inputs": [],
      "name": "fetchMyWarrantyItems",
      "outputs": [
        {
          "components": [
            {
              "internalType": "uint256",
              "name": "itemId",
              "type": "uint256"
            },
            {
              "internalType": "uint256",
              "name": "tokenId",
              "type": "uint256"
            },
            {
              "internalType": "address",
              "name": "seller",
              "type": "address"
            },
            {
              "internalType": "address payable",
              "name": "owner",
              "type": "address"
            },
            {
              "internalType": "uint256",
              "name": "startDate",
              "type": "uint256"
            },
            {
              "internalType": "string",
              "name": "productUrl",
              "type": "string"
            },
            {
              "internalType": "bool",
              "name": "active",
              "type": "bool"
            },
            {
              "internalType": "uint256",
              "name": "period",
              "type": "uint256"
            },
            {
              "internalType": "string",
              "name": "sno",
              "type": "string"
            },
            {
              "internalType": "uint256",
              "name": "incrementPrice",
              "type": "uint256"
            }
          ],
          "internalType": "struct NFTWarranty.WarrantyItem[]",
          "name": "",
          "type": "tuple[]"
        }
      ],
      "stateMutability": "view",
      "type": "function"
    },
    {
      "inputs": [],
      "name": "getAllWarrantyItems",
      "outputs": [
        {
          "components": [
            {
              "internalType": "uint256",
              "name": "itemId",
              "type": "uint256"
            },
            {
              "internalType": "uint256",
              "name": "tokenId",
              "type": "uint256"
            },
            {
              "internalType": "address",
              "name": "seller",
              "type": "address"
            },
            {
              "internalType": "address payable",
              "name": "owner",
              "type": "address"
            },
            {
              "internalType": "uint256",
              "name": "startDate",
              "type": "uint256"
            },
            {
              "internalType": "string",
              "name": "productUrl",
              "type": "string"
            },
            {
              "internalType": "bool",
              "name": "active",
              "type": "bool"
            },
            {
              "internalType": "uint256",
              "name": "period",
              "type": "uint256"
            },
            {
              "internalType": "string",
              "name": "sno",
              "type": "string"
            },
            {
              "internalType": "uint256",
              "name": "incrementPrice",
              "type": "uint256"
            }
          ],
          "internalType": "struct NFTWarranty.WarrantyItem[]",
          "name": "",
          "type": "tuple[]"
        }
      ],
      "stateMutability": "view",
      "type": "function"
    },
    {
      "inputs": [
        {
          "internalType": "uint256",
          "name": "tokenId",
          "type": "uint256"
        }
      ],
      "name": "getApproved",
      "outputs": [
        {
          "internalType": "address",
          "name": "",
          "type": "address"
        }
      ],
      "stateMutability": "view",
      "type": "function"
    },
    {
      "inputs": [
        {
          "internalType": "uint256",
          "name": "itemId",
          "type": "uint256"
        }
      ],
      "name": "getMonthsPassed",
      "outputs": [
        {
          "internalType": "uint256",
          "name": "",
          "type": "uint256"
        }
      ],
      "stateMutability": "view",
      "type": "function"
    },
    {
      "inputs": [],
      "name": "getWarrantyItemCount",
      "outputs": [
        {
          "internalType": "uint256",
          "name": "",
          "type": "uint256"
        }
      ],
      "stateMutability": "view",
      "type": "function"
    },
    {
      "inputs": [
        {
          "internalType": "uint256",
          "name": "itemId",
          "type": "uint256"
        },
        {
          "internalType": "uint256",
          "name": "addPeriod",
          "type": "uint256"
        }
      ],
      "name": "increasePeriod",
      "outputs": [],
      "stateMutability": "payable",
      "type": "function"
    },
    {
      "inputs": [
        {
          "internalType": "address",
          "name": "owner",
          "type": "address"
        },
        {
          "internalType": "address",
          "name": "operator",
          "type": "address"
        }
      ],
      "name": "isApprovedForAll",
      "outputs": [
        {
          "internalType": "bool",
          "name": "",
          "type": "bool"
        }
      ],
      "stateMutability": "view",
      "type": "function"
    },
    {
      "inputs": [],
      "name": "name",
      "outputs": [
        {
          "internalType": "string",
          "name": "",
          "type": "string"
        }
      ],
      "stateMutability": "view",
      "type": "function"
    },
    {
      "inputs": [
        {
          "internalType": "uint256",
          "name": "tokenId",
          "type": "uint256"
        }
      ],
      "name": "ownerOf",
      "outputs": [
        {
          "internalType": "address",
          "name": "",
          "type": "address"
        }
      ],
      "stateMutability": "view",
      "type": "function"
    },
    {
      "inputs": [],
      "name": "returnCaller",
      "outputs": [
        {
          "internalType": "address",
          "name": "",
          "type": "address"
        }
      ],
      "stateMutability": "view",
      "type": "function"
    },
    {
      "inputs": [
        {
          "internalType": "address",
          "name": "from",
          "type": "address"
        },
        {
          "internalType": "address",
          "name": "to",
          "type": "address"
        },
        {
          "internalType": "uint256",
          "name": "tokenId",
          "type": "uint256"
        }
      ],
      "name": "safeTransferFrom",
      "outputs": [],
      "stateMutability": "nonpayable",
      "type": "function"
    },
    {
      "inputs": [
        {
          "internalType": "address",
          "name": "from",
          "type": "address"
        },
        {
          "internalType": "address",
          "name": "to",
          "type": "address"
        },
        {
          "internalType": "uint256",
          "name": "tokenId",
          "type": "uint256"
        },
        {
          "internalType": "bytes",
          "name": "data",
          "type": "bytes"
        }
      ],
      "name": "safeTransferFrom",
      "outputs": [],
      "stateMutability": "nonpayable",
      "type": "function"
    },
    {
      "inputs": [
        {
          "internalType": "address",
          "name": "operator",
          "type": "address"
        },
        {
          "internalType": "bool",
          "name": "approved",
          "type": "bool"
        }
      ],
      "name": "setApprovalForAll",
      "outputs": [],
      "stateMutability": "nonpayable",
      "type": "function"
    },
    {
      "inputs": [
        {
          "internalType": "bytes4",
          "name": "interfaceId",
          "type": "bytes4"
        }
      ],
      "name": "supportsInterface",
      "outputs": [
        {
          "internalType": "bool",
          "name": "",
          "type": "bool"
        }
      ],
      "stateMutability": "view",
      "type": "function"
    },
    {
      "inputs": [],
      "name": "symbol",
      "outputs": [
        {
          "internalType": "string",
          "name": "",
          "type": "string"
        }
      ],
      "stateMutability": "view",
      "type": "function"
    },
    {
      "inputs": [
        {
          "internalType": "uint256",
          "name": "tokenId",
          "type": "uint256"
        }
      ],
      "name": "tokenURI",
      "outputs": [
        {
          "internalType": "string",
          "name": "",
          "type": "string"
        }
      ],
      "stateMutability": "view",
      "type": "function"
    },
    {
      "inputs": [
        {
          "internalType": "address",
          "name": "from",
          "type": "address"
        },
        {
          "internalType": "address",
          "name": "to",
          "type": "address"
        },
        {
          "internalType": "uint256",
          "name": "tokenId",
          "type": "uint256"
        }
      ],
      "name": "transferFrom",
      "outputs": [],
      "stateMutability": "nonpayable",
      "type": "function"
    },
    {
      "inputs": [
        {
          "internalType": "uint256",
          "name": "tokenId",
          "type": "uint256"
        },
        {
          "internalType": "address payable",
          "name": "newOwner",
          "type": "address"
        }
      ],
      "name": "transferWarrantyItem",
      "outputs": [],
      "stateMutability": "nonpayable",
      "type": "function"
    },
    {
      "inputs": [
        {
          "internalType": "uint256",
          "name": "tokenId",
          "type": "uint256"
        }
      ],
      "name": "verifyNFTOwnership",
      "outputs": [
        {
          "internalType": "bool",
          "name": "",
          "type": "bool"
        }
      ],
      "stateMutability": "view",
      "type": "function"
    },
    {
      "inputs": [
        {
          "internalType": "uint256",
          "name": "itemId",
          "type": "uint256"
        }
      ],
      "name": "verifyWarrantyItemActive",
      "outputs": [
        {
          "internalType": "bool",
          "name": "",
          "type": "bool"
        }
      ],
      "stateMutability": "view",
      "type": "function"
    }
  ],
  "bytecode": "0x601360808181527f4e46542057617272616e747920546f6b656e730000000000000000000000000060a0908152610100604052600360c0908152621395d560ea1b60e0529192620000539160009162000084565b5080516200006990600190602084019062000084565b5050600a80546001600160a01b031916331790555062000167565b82805462000092906200012a565b90600052602060002090601f016020900481019282620000b6576000855562000101565b82601f10620000d157805160ff191683800117855562000101565b8280016001018555821562000101579182015b8281111562000101578251825591602001919060010190620000e4565b506200010f92915062000113565b5090565b5b808211156200010f576000815560010162000114565b600181811c908216806200013f57607f821691505b602082108114156200016157634e487b7160e01b600052602260045260246000fd5b50919050565b61286c80620001776000396000f3fe6080604052600436106101815760003560e01c806370a08231116100d1578063b2498df91161008a578063cada481511610064578063cada48151461046f578063d67b2d0814610484578063e985e9c5146104a4578063fe464c4e146104ed57600080fd5b8063b2498df91461040f578063b88d4fde1461042f578063c87b56dd1461044f57600080fd5b806370a082311461033f578063811923181461036d57806394cb675a1461038257806395d89b41146103ba5780639a42f011146103cf578063a22cb465146103ef57600080fd5b806323b872dd1161013e57806346da2fcf1161011857806346da2fcf146102ca5780634bba2a57146102ec5780636213bdf21461030c5780636352211e1461031f57600080fd5b806323b872dd1461026a5780632890e0d71461028a57806342842e0e146102aa57600080fd5b806301ffc9a71461018657806306fdde03146101bb578063081812fc146101dd578063095ea7b3146102155780630f7c8c501461023757806311ed77ca1461024a575b600080fd5b34801561019257600080fd5b506101a66101a1366004612365565b610502565b60405190151581526020015b60405180910390f35b3480156101c757600080fd5b506101d0610554565b6040516101b291906125fc565b3480156101e957600080fd5b506101fd6101f836600461240f565b6105e6565b6040516001600160a01b0390911681526020016101b2565b34801561022157600080fd5b5061023561023036600461233a565b61060d565b005b61023561024536600461244b565b610728565b34801561025657600080fd5b50610235610265366004612427565b6107aa565b34801561027657600080fd5b5061023561028536600461224c565b61080b565b34801561029657600080fd5b506101a66102a536600461240f565b61083c565b3480156102b657600080fd5b506102356102c536600461224c565b61088d565b3480156102d657600080fd5b506102df6108a8565b6040516101b29190612504565b3480156102f857600080fd5b506101a661030736600461240f565b610c01565b34801561031857600080fd5b50336101fd565b34801561032b57600080fd5b506101fd61033a36600461240f565b610c33565b34801561034b57600080fd5b5061035f61035a3660046121f8565b610c93565b6040519081526020016101b2565b34801561037957600080fd5b5061035f610d19565b34801561038e57600080fd5b506101a661039d36600461240f565b6000908152600e602052604090206006015460ff16151560011490565b3480156103c657600080fd5b506101d0610d29565b3480156103db57600080fd5b5061035f6103ea36600461240f565b610d38565b3480156103fb57600080fd5b5061023561040a366004612309565b610d6d565b34801561041b57600080fd5b506101a661042a36600461240f565b610d78565b34801561043b57600080fd5b5061023561044a36600461228c565b610db5565b34801561045b57600080fd5b506101d061046a36600461240f565b610ded565b34801561047b57600080fd5b506102df610efe565b34801561049057600080fd5b5061035f61049f36600461239d565b6111a2565b3480156104b057600080fd5b506101a66104bf366004612214565b6001600160a01b03918216600090815260056020908152604080832093909416825291909152205460ff1690565b3480156104f957600080fd5b506102df61135d565b60006001600160e01b031982166380ac58cd60e01b148061053357506001600160e01b03198216635b5e139f60e01b145b8061054e57506301ffc9a760e01b6001600160e01b03198316145b92915050565b6060600080546105639061275f565b80601f016020809104026020016040519081016040528092919081815260200182805461058f9061275f565b80156105dc5780601f106105b1576101008083540402835291602001916105dc565b820191906000526020600020905b8154815290600101906020018083116105bf57829003601f168201915b5050505050905090565b60006105f1826116a5565b506000908152600460205260409020546001600160a01b031690565b600061061882610c33565b9050806001600160a01b0316836001600160a01b0316141561068b5760405162461bcd60e51b815260206004820152602160248201527f4552433732313a20617070726f76616c20746f2063757272656e74206f776e656044820152603960f91b60648201526084015b60405180910390fd5b336001600160a01b03821614806106a757506106a781336104bf565b6107195760405162461bcd60e51b815260206004820152603e60248201527f4552433732313a20617070726f76652063616c6c6572206973206e6f7420746f60448201527f6b656e206f776e6572206e6f7220617070726f76656420666f7220616c6c00006064820152608401610682565b6107238383611707565b505050565b610749826000908152600e602052604090206006015460ff16151560011490565b1561077a576000828152600e60205260408120600701805483929061076f9084906126f0565b909155506107a69050565b6000828152600e602052604090206007810182905560068101805460ff19166001179055426004909101555b5050565b6107b382610c01565b6107cf5760405162461bcd60e51b815260040161068290612661565b6107da33828461080b565b6000918252600e602052604090912060030180546001600160a01b0319166001600160a01b03909216919091179055565b6108153382611775565b6108315760405162461bcd60e51b8152600401610682906126a2565b6107238383836117f3565b600061084782610c01565b6108635760405162461bcd60e51b815260040161068290612661565b6000828152600e60205260409020600601805460ff191690556108858261198f565b506001919050565b61072383838360405180602001604052806000815250610db5565b606060006108b4610d19565b905060008060005b83811015610944576000600e816108d48460016126f0565b81526020808201929092526040908101600090812054808252600e909352206003810154919250906001600160a01b03163314801561091c5750600681015460ff1615156001145b1561092f5761092c6001856126f0565b93505b5050808061093c9061279a565b9150506108bc565b5060008167ffffffffffffffff81111561096e57634e487b7160e01b600052604160045260246000fd5b6040519080825280602002602001820160405280156109a757816020015b61099461202d565b81526020019060019003908161098c5790505b50905060005b84811015610bf8576000600e816109c58460016126f0565b81526020808201929092526040908101600090812054808252600e909352206003810154919250906001600160a01b031633148015610a0d5750600681015460ff1615156001145b15610be3576040805161014081018252825481526001830154602082015260028301546001600160a01b03908116928201929092526003830154909116606082015260048201546080820152600582018054839160a0840191610a6f9061275f565b80601f0160208091040260200160405190810160405280929190818152602001828054610a9b9061275f565b8015610ae85780601f10610abd57610100808354040283529160200191610ae8565b820191906000526020600020905b815481529060010190602001808311610acb57829003601f168201915b5050509183525050600682015460ff161515602082015260078201546040820152600882018054606090920191610b1e9061275f565b80601f0160208091040260200160405190810160405280929190818152602001828054610b4a9061275f565b8015610b975780601f10610b6c57610100808354040283529160200191610b97565b820191906000526020600020905b815481529060010190602001808311610b7a57829003601f168201915b50505050508152602001600982015481525050848781518110610bca57634e487b7160e01b600052603260045260246000fd5b6020908102919091010152610be06001876126f0565b95505b50508080610bf09061279a565b9150506109ad565b50949350505050565b6000818152600e60205260408120600301546001600160a01b0316331415610c2b57506001919050565b506000919050565b6000818152600260205260408120546001600160a01b03168061054e5760405162461bcd60e51b8152602060048201526018602482015277115490cdcc8c4e881a5b9d985b1a59081d1bdad95b88125160421b6044820152606401610682565b60006001600160a01b038216610cfd5760405162461bcd60e51b815260206004820152602960248201527f4552433732313a2061646472657373207a65726f206973206e6f7420612076616044820152683634b21037bbb732b960b91b6064820152608401610682565b506001600160a01b031660009081526003602052604090205490565b6000610d2460075490565b905090565b6060600180546105639061275f565b6000818152600e6020526040812060040154428262278d00610d5a848461271c565b610d649190612708565b95945050505050565b6107a63383836119cf565b600080610d8483610d38565b6000848152600e602052604090206007015490915080821115610dab575060019392505050565b5060009392505050565b610dbf3383611775565b610ddb5760405162461bcd60e51b8152600401610682906126a2565b610de784848484611a9e565b50505050565b6060610df8826116a5565b60008281526006602052604081208054610e119061275f565b80601f0160208091040260200160405190810160405280929190818152602001828054610e3d9061275f565b8015610e8a5780601f10610e5f57610100808354040283529160200191610e8a565b820191906000526020600020905b815481529060010190602001808311610e6d57829003601f168201915b505050505090506000610ea860408051602081019091526000815290565b9050805160001415610ebb575092915050565b815115610eed578082604051602001610ed5929190612498565b60405160208183030381529060405292505050919050565b610ef684611ad1565b949350505050565b60606000610f0a610d19565b90506000808267ffffffffffffffff811115610f3657634e487b7160e01b600052604160045260246000fd5b604051908082528060200260200182016040528015610f6f57816020015b610f5c61202d565b815260200190600190039081610f545790505b50905060005b8381101561119a576000600e81610f8d8460016126f0565b81526020808201929092526040908101600090812054808252600e8452908290208251610140810184528154815260018201549481019490945260028101546001600160a01b03908116938501939093526003810154909216606084015260048201546080840152600582018054919450919291839160a0840191906110129061275f565b80601f016020809104026020016040519081016040528092919081815260200182805461103e9061275f565b801561108b5780601f106110605761010080835404028352916020019161108b565b820191906000526020600020905b81548152906001019060200180831161106e57829003601f168201915b5050509183525050600682015460ff1615156020820152600782015460408201526008820180546060909201916110c19061275f565b80601f01602080910402602001604051908101604052809291908181526020018280546110ed9061275f565b801561113a5780601f1061110f5761010080835404028352916020019161113a565b820191906000526020600020905b81548152906001019060200180831161111d57829003601f168201915b5050505050815260200160098201548152505084868151811061116d57634e487b7160e01b600052603260045260246000fd5b60209081029190910101526111836001866126f0565b9450505080806111929061279a565b915050610f75565b509392505050565b60006111b2600980546001019055565b60006111bd60095490565b90506111c93382611b45565b6111d38187611b5f565b6111e1600780546001019055565b60006111ec60075490565b9050604051806101400160405280828152602001838152602001600a60009054906101000a90046001600160a01b03166001600160a01b03168152602001336001600160a01b0316815260200142815260200188815260200160011515815260200187815260200186815260200185815250600e6000838152602001908152602001600020600082015181600001556020820151816001015560408201518160020160006101000a8154816001600160a01b0302191690836001600160a01b0316021790555060608201518160030160006101000a8154816001600160a01b0302191690836001600160a01b031602179055506080820151816004015560a0820151816005019080519060200190611305929190612094565b5060c082015160068201805460ff191691151591909117905560e082015160078201556101008201518051611344916008840191602090910190612094565b5061012091909101516009909101555095945050505050565b60606000611369610d19565b905060008060005b838110156113f5576000600e816113898460016126f0565b81526020808201929092526040908101600090812054808252600e909352206003810154919250906001600160a01b0316331480156113cd5750600681015460ff16155b156113e0576113dd6001856126f0565b93505b505080806113ed9061279a565b915050611371565b5060008167ffffffffffffffff81111561141f57634e487b7160e01b600052604160045260246000fd5b60405190808252806020026020018201604052801561145857816020015b61144561202d565b81526020019060019003908161143d5790505b50905060005b84811015610bf8576000600e816114768460016126f0565b81526020808201929092526040908101600090812054808252600e909352206003810154919250906001600160a01b0316331480156114ba5750600681015460ff16155b15611690576040805161014081018252825481526001830154602082015260028301546001600160a01b03908116928201929092526003830154909116606082015260048201546080820152600582018054839160a084019161151c9061275f565b80601f01602080910402602001604051908101604052809291908181526020018280546115489061275f565b80156115955780601f1061156a57610100808354040283529160200191611595565b820191906000526020600020905b81548152906001019060200180831161157857829003601f168201915b5050509183525050600682015460ff1615156020820152600782015460408201526008820180546060909201916115cb9061275f565b80601f01602080910402602001604051908101604052809291908181526020018280546115f79061275f565b80156116445780601f1061161957610100808354040283529160200191611644565b820191906000526020600020905b81548152906001019060200180831161162757829003601f168201915b5050505050815260200160098201548152505084878151811061167757634e487b7160e01b600052603260045260246000fd5b602090810291909101015261168d6001876126f0565b95505b5050808061169d9061279a565b91505061145e565b6000818152600260205260409020546001600160a01b03166117045760405162461bcd60e51b8152602060048201526018602482015277115490cdcc8c4e881a5b9d985b1a59081d1bdad95b88125160421b6044820152606401610682565b50565b600081815260046020526040902080546001600160a01b0319166001600160a01b038416908117909155819061173c82610c33565b6001600160a01b03167f8c5be1e5ebec7d5bd14f71427d1e84f3dd0314c0f7b2291e5b200ac8c7c3b92560405160405180910390a45050565b60008061178183610c33565b9050806001600160a01b0316846001600160a01b031614806117c857506001600160a01b0380821660009081526005602090815260408083209388168352929052205460ff165b80610ef65750836001600160a01b03166117e1846105e6565b6001600160a01b031614949350505050565b826001600160a01b031661180682610c33565b6001600160a01b03161461186a5760405162461bcd60e51b815260206004820152602560248201527f4552433732313a207472616e736665722066726f6d20696e636f72726563742060448201526437bbb732b960d91b6064820152608401610682565b6001600160a01b0382166118cc5760405162461bcd60e51b8152602060048201526024808201527f4552433732313a207472616e7366657220746f20746865207a65726f206164646044820152637265737360e01b6064820152608401610682565b6118d7600082611707565b6001600160a01b038316600090815260036020526040812080546001929061190090849061271c565b90915550506001600160a01b038216600090815260036020526040812080546001929061192e9084906126f0565b909155505060008181526002602052604080822080546001600160a01b0319166001600160a01b0386811691821790925591518493918716917fddf252ad1be2c89b69c2b068fc378daa952ba7f163c4a11628f55a4df523b3ef91a4505050565b61199881611bf9565b600081815260066020526040902080546119b19061275f565b15905061170457600081815260066020526040812061170491612118565b816001600160a01b0316836001600160a01b03161415611a315760405162461bcd60e51b815260206004820152601960248201527f4552433732313a20617070726f766520746f2063616c6c6572000000000000006044820152606401610682565b6001600160a01b03838116600081815260056020908152604080832094871680845294825291829020805460ff191686151590811790915591519182527f17307eab39ab6107e8899845ad3d59bd9653f200f220920489ca2b5937696c31910160405180910390a3505050565b611aa98484846117f3565b611ab584848484611c94565b610de75760405162461bcd60e51b81526004016106829061260f565b6060611adc826116a5565b6000611af360408051602081019091526000815290565b90506000815111611b135760405180602001604052806000815250611b3e565b80611b1d84611d9e565b604051602001611b2e929190612498565b6040516020818303038152906040525b9392505050565b6107a6828260405180602001604052806000815250611eb8565b6000828152600260205260409020546001600160a01b0316611bda5760405162461bcd60e51b815260206004820152602e60248201527f45524337323155524953746f726167653a2055524920736574206f66206e6f6e60448201526d32bc34b9ba32b73a103a37b5b2b760911b6064820152608401610682565b6000828152600660209081526040909120825161072392840190612094565b6000611c0482610c33565b9050611c11600083611707565b6001600160a01b0381166000908152600360205260408120805460019290611c3a90849061271c565b909155505060008281526002602052604080822080546001600160a01b0319169055518391906001600160a01b038416907fddf252ad1be2c89b69c2b068fc378daa952ba7f163c4a11628f55a4df523b3ef908390a45050565b60006001600160a01b0384163b15611d9657604051630a85bd0160e11b81526001600160a01b0385169063150b7a0290611cd89033908990889088906004016124c7565b602060405180830381600087803b158015611cf257600080fd5b505af1925050508015611d22575060408051601f3d908101601f19168201909252611d1f91810190612381565b60015b611d7c573d808015611d50576040519150601f19603f3d011682016040523d82523d6000602084013e611d55565b606091505b508051611d745760405162461bcd60e51b81526004016106829061260f565b805181602001fd5b6001600160e01b031916630a85bd0160e11b149050610ef6565b506001610ef6565b606081611dc25750506040805180820190915260018152600360fc1b602082015290565b8160005b8115611dec5780611dd68161279a565b9150611de59050600a83612708565b9150611dc6565b60008167ffffffffffffffff811115611e1557634e487b7160e01b600052604160045260246000fd5b6040519080825280601f01601f191660200182016040528015611e3f576020820181803683370190505b5090505b8415610ef657611e5460018361271c565b9150611e61600a866127b5565b611e6c9060306126f0565b60f81b818381518110611e8f57634e487b7160e01b600052603260045260246000fd5b60200101906001600160f81b031916908160001a905350611eb1600a86612708565b9450611e43565b611ec28383611eeb565b611ecf6000848484611c94565b6107235760405162461bcd60e51b81526004016106829061260f565b6001600160a01b038216611f415760405162461bcd60e51b815260206004820181905260248201527f4552433732313a206d696e7420746f20746865207a65726f20616464726573736044820152606401610682565b6000818152600260205260409020546001600160a01b031615611fa65760405162461bcd60e51b815260206004820152601c60248201527f4552433732313a20746f6b656e20616c7265616479206d696e746564000000006044820152606401610682565b6001600160a01b0382166000908152600360205260408120805460019290611fcf9084906126f0565b909155505060008181526002602052604080822080546001600160a01b0319166001600160a01b03861690811790915590518392907fddf252ad1be2c89b69c2b068fc378daa952ba7f163c4a11628f55a4df523b3ef908290a45050565b604051806101400160405280600081526020016000815260200160006001600160a01b0316815260200160006001600160a01b0316815260200160008152602001606081526020016000151581526020016000815260200160608152602001600081525090565b8280546120a09061275f565b90600052602060002090601f0160209004810192826120c25760008555612108565b82601f106120db57805160ff1916838001178555612108565b82800160010185558215612108579182015b828111156121085782518255916020019190600101906120ed565b5061211492915061214e565b5090565b5080546121249061275f565b6000825580601f10612134575050565b601f01602090049060005260206000209081019061170491905b5b80821115612114576000815560010161214f565b600067ffffffffffffffff8084111561217e5761217e6127f5565b604051601f8501601f19908116603f011681019082821181831017156121a6576121a66127f5565b816040528093508581528686860111156121bf57600080fd5b858560208301376000602087830101525050509392505050565b600082601f8301126121e9578081fd5b611b3e83833560208501612163565b600060208284031215612209578081fd5b8135611b3e8161280b565b60008060408385031215612226578081fd5b82356122318161280b565b915060208301356122418161280b565b809150509250929050565b600080600060608486031215612260578081fd5b833561226b8161280b565b9250602084013561227b8161280b565b929592945050506040919091013590565b600080600080608085870312156122a1578081fd5b84356122ac8161280b565b935060208501356122bc8161280b565b925060408501359150606085013567ffffffffffffffff8111156122de578182fd5b8501601f810187136122ee578182fd5b6122fd87823560208401612163565b91505092959194509250565b6000806040838503121561231b578182fd5b82356123268161280b565b915060208301358015158114612241578182fd5b6000806040838503121561234c578182fd5b82356123578161280b565b946020939093013593505050565b600060208284031215612376578081fd5b8135611b3e81612820565b600060208284031215612392578081fd5b8151611b3e81612820565b600080600080608085870312156123b2578384fd5b843567ffffffffffffffff808211156123c9578586fd5b6123d5888389016121d9565b95506020870135945060408701359150808211156123f1578384fd5b506123fe878288016121d9565b949793965093946060013593505050565b600060208284031215612420578081fd5b5035919050565b60008060408385031215612439578182fd5b8235915060208301356122418161280b565b6000806040838503121561245d578182fd5b50508035926020909101359150565b60008151808452612484816020860160208601612733565b601f01601f19169290920160200192915050565b600083516124aa818460208801612733565b8351908301906124be818360208801612733565b01949350505050565b6001600160a01b03858116825284166020820152604081018390526080606082018190526000906124fa9083018461246c565b9695505050505050565b60006020808301818452808551808352604092508286019150828160051b870101848801865b838110156125ee57603f198984030185528151805184528781015188850152868101516001600160a01b0390811688860152606080830151909116908501526080808201519085015260a08082015161014082870181905291906125908388018261246c565b9250505060c0808301516125a78288018215159052565b505060e0828101519086015261010080830151868303828801526125cb838261246c565b61012094850151979094019690965250509487019492509086019060010161252a565b509098975050505050505050565b602081526000611b3e602083018461246c565b60208082526032908201527f4552433732313a207472616e7366657220746f206e6f6e20455243373231526560408201527131b2b4bb32b91034b6b83632b6b2b73a32b960711b606082015260800190565b60208082526021908201527f596f7520617265206e6f7420746865206f776e6572206f662074686973204e466040820152601560fa1b606082015260800190565b6020808252602e908201527f4552433732313a2063616c6c6572206973206e6f7420746f6b656e206f776e6560408201526d1c881b9bdc88185c1c1c9bdd995960921b606082015260800190565b60008219821115612703576127036127c9565b500190565b600082612717576127176127df565b500490565b60008282101561272e5761272e6127c9565b500390565b60005b8381101561274e578181015183820152602001612736565b83811115610de75750506000910152565b600181811c9082168061277357607f821691505b6020821081141561279457634e487b7160e01b600052602260045260246000fd5b50919050565b60006000198214156127ae576127ae6127c9565b5060010190565b6000826127c4576127c46127df565b500690565b634e487b7160e01b600052601160045260246000fd5b634e487b7160e01b600052601260045260246000fd5b634e487b7160e01b600052604160045260246000fd5b6001600160a01b038116811461170457600080fd5b6001600160e01b03198116811461170457600080fdfea2646970667358221220dd812c53cdb91cd963163d1d1b38bdba2fc9a5dd6aa0b5d44871a90a0e76b0d564736f6c63430008040033",
  "linkReferences": {},
  "deployedLinkReferences": {}
}