{
  "_format": "hh-sol-artifact-1",
  "contractName": "NFTWarranty",
  "sourceName": "contracts/NFTWarranty.sol",
  "abi": [
    {
      "inputs": [],
      "stateMutability": "nonpayable",
      "type": "constructor"
    },
    {
      "anonymous": false,
      "inputs": [
        {
          "indexed": true,
          "internalType": "uint256",
          "name": "itemId",
          "type": "uint256"
        },
        {
          "indexed": true,
          "internalType": "address",
          "name": "nftContract",
          "type": "address"
        },
        {
          "indexed": true,
          "internalType": "uint256",
          "name": "tokenId",
          "type": "uint256"
        },
        {
          "indexed": false,
          "internalType": "address",
          "name": "seller",
          "type": "address"
        },
        {
          "indexed": false,
          "internalType": "address",
          "name": "owner",
          "type": "address"
        },
        {
          "indexed": false,
          "internalType": "uint256",
          "name": "startDate",
          "type": "uint256"
        },
        {
          "indexed": false,
          "internalType": "string",
          "name": "productUrl",
          "type": "string"
        },
        {
          "indexed": false,
          "internalType": "bool",
          "name": "active",
          "type": "bool"
        },
        {
          "indexed": false,
          "internalType": "uint256",
          "name": "period",
          "type": "uint256"
        },
        {
          "indexed": false,
          "internalType": "string",
          "name": "sno",
          "type": "string"
        },
        {
          "indexed": false,
          "internalType": "uint256",
          "name": "incrementPrice",
          "type": "uint256"
        }
      ],
      "name": "WarrantyItemCreated",
      "type": "event"
    },
    {
      "inputs": [
        {
          "internalType": "address",
          "name": "nftContract",
          "type": "address"
        },
        {
          "internalType": "uint256",
          "name": "tokenId",
          "type": "uint256"
        }
      ],
      "name": "burnNFT",
      "outputs": [
        {
          "internalType": "bool",
          "name": "",
          "type": "bool"
        }
      ],
      "stateMutability": "nonpayable",
      "type": "function"
    },
    {
      "inputs": [
        {
          "internalType": "uint256",
          "name": "itemId",
          "type": "uint256"
        }
      ],
      "name": "checkIfExpired",
      "outputs": [
        {
          "internalType": "bool",
          "name": "",
          "type": "bool"
        }
      ],
      "stateMutability": "view",
      "type": "function"
    },
    {
      "inputs": [
        {
          "internalType": "address",
          "name": "nftContract",
          "type": "address"
        },
        {
          "internalType": "uint256",
          "name": "tokenId",
          "type": "uint256"
        },
        {
          "internalType": "string",
          "name": "productUrl",
          "type": "string"
        },
        {
          "internalType": "uint256",
          "name": "period",
          "type": "uint256"
        },
        {
          "internalType": "string",
          "name": "sno",
          "type": "string"
        },
        {
          "internalType": "uint256",
          "name": "incrementPrice",
          "type": "uint256"
        }
      ],
      "name": "createWarrantyItem",
      "outputs": [],
      "stateMutability": "payable",
      "type": "function"
    },
    {
      "inputs": [],
      "name": "fetchMyExpiredWarrantyItems",
      "outputs": [
        {
          "components": [
            {
              "internalType": "uint256",
              "name": "itemId",
              "type": "uint256"
            },
            {
              "internalType": "address",
              "name": "nftContract",
              "type": "address"
            },
            {
              "internalType": "uint256",
              "name": "tokenId",
              "type": "uint256"
            },
            {
              "internalType": "address payable",
              "name": "seller",
              "type": "address"
            },
            {
              "internalType": "address payable",
              "name": "owner",
              "type": "address"
            },
            {
              "internalType": "uint256",
              "name": "startDate",
              "type": "uint256"
            },
            {
              "internalType": "string",
              "name": "productUrl",
              "type": "string"
            },
            {
              "internalType": "bool",
              "name": "active",
              "type": "bool"
            },
            {
              "internalType": "uint256",
              "name": "period",
              "type": "uint256"
            },
            {
              "internalType": "string",
              "name": "sno",
              "type": "string"
            },
            {
              "internalType": "uint256",
              "name": "incrementPrice",
              "type": "uint256"
            }
          ],
          "internalType": "struct NFTWarranty.WarrantyItem[]",
          "name": "",
          "type": "tuple[]"
        }
      ],
      "stateMutability": "view",
      "type": "function"
    },
    {
      "inputs": [],
      "name": "fetchMyWarrantyItems",
      "outputs": [
        {
          "components": [
            {
              "internalType": "uint256",
              "name": "itemId",
              "type": "uint256"
            },
            {
              "internalType": "address",
              "name": "nftContract",
              "type": "address"
            },
            {
              "internalType": "uint256",
              "name": "tokenId",
              "type": "uint256"
            },
            {
              "internalType": "address payable",
              "name": "seller",
              "type": "address"
            },
            {
              "internalType": "address payable",
              "name": "owner",
              "type": "address"
            },
            {
              "internalType": "uint256",
              "name": "startDate",
              "type": "uint256"
            },
            {
              "internalType": "string",
              "name": "productUrl",
              "type": "string"
            },
            {
              "internalType": "bool",
              "name": "active",
              "type": "bool"
            },
            {
              "internalType": "uint256",
              "name": "period",
              "type": "uint256"
            },
            {
              "internalType": "string",
              "name": "sno",
              "type": "string"
            },
            {
              "internalType": "uint256",
              "name": "incrementPrice",
              "type": "uint256"
            }
          ],
          "internalType": "struct NFTWarranty.WarrantyItem[]",
          "name": "",
          "type": "tuple[]"
        }
      ],
      "stateMutability": "view",
      "type": "function"
    },
    {
      "inputs": [],
      "name": "getAllWarrantyItems",
      "outputs": [
        {
          "components": [
            {
              "internalType": "uint256",
              "name": "itemId",
              "type": "uint256"
            },
            {
              "internalType": "address",
              "name": "nftContract",
              "type": "address"
            },
            {
              "internalType": "uint256",
              "name": "tokenId",
              "type": "uint256"
            },
            {
              "internalType": "address payable",
              "name": "seller",
              "type": "address"
            },
            {
              "internalType": "address payable",
              "name": "owner",
              "type": "address"
            },
            {
              "internalType": "uint256",
              "name": "startDate",
              "type": "uint256"
            },
            {
              "internalType": "string",
              "name": "productUrl",
              "type": "string"
            },
            {
              "internalType": "bool",
              "name": "active",
              "type": "bool"
            },
            {
              "internalType": "uint256",
              "name": "period",
              "type": "uint256"
            },
            {
              "internalType": "string",
              "name": "sno",
              "type": "string"
            },
            {
              "internalType": "uint256",
              "name": "incrementPrice",
              "type": "uint256"
            }
          ],
          "internalType": "struct NFTWarranty.WarrantyItem[]",
          "name": "",
          "type": "tuple[]"
        }
      ],
      "stateMutability": "view",
      "type": "function"
    },
    {
      "inputs": [
        {
          "internalType": "uint256",
          "name": "itemId",
          "type": "uint256"
        }
      ],
      "name": "getMonthsPassed",
      "outputs": [
        {
          "internalType": "uint256",
          "name": "",
          "type": "uint256"
        }
      ],
      "stateMutability": "view",
      "type": "function"
    },
    {
      "inputs": [],
      "name": "getWarrantyItemCount",
      "outputs": [
        {
          "internalType": "uint256",
          "name": "",
          "type": "uint256"
        }
      ],
      "stateMutability": "view",
      "type": "function"
    },
    {
      "inputs": [
        {
          "internalType": "uint256",
          "name": "itemId",
          "type": "uint256"
        },
        {
          "internalType": "uint256",
          "name": "addPeriod",
          "type": "uint256"
        }
      ],
      "name": "increasePeriod",
      "outputs": [],
      "stateMutability": "payable",
      "type": "function"
    },
    {
      "inputs": [],
      "name": "returnCaller",
      "outputs": [
        {
          "internalType": "address",
          "name": "",
          "type": "address"
        }
      ],
      "stateMutability": "view",
      "type": "function"
    },
    {
      "inputs": [
        {
          "internalType": "address",
          "name": "nftContract",
          "type": "address"
        },
        {
          "internalType": "uint256",
          "name": "tokenId",
          "type": "uint256"
        },
        {
          "internalType": "address payable",
          "name": "newOwner",
          "type": "address"
        }
      ],
      "name": "transferWarrantyItem",
      "outputs": [],
      "stateMutability": "nonpayable",
      "type": "function"
    },
    {
      "inputs": [
        {
          "internalType": "address",
          "name": "nftContract",
          "type": "address"
        },
        {
          "internalType": "uint256",
          "name": "tokenId",
          "type": "uint256"
        }
      ],
      "name": "verifyNFTOwnership",
      "outputs": [
        {
          "internalType": "bool",
          "name": "",
          "type": "bool"
        }
      ],
      "stateMutability": "view",
      "type": "function"
    },
    {
      "inputs": [
        {
          "internalType": "uint256",
          "name": "itemId",
          "type": "uint256"
        }
      ],
      "name": "verifyWarrantyItemActive",
      "outputs": [
        {
          "internalType": "bool",
          "name": "",
          "type": "bool"
        }
      ],
      "stateMutability": "view",
      "type": "function"
    }
  ],
  "bytecode": "0x608060405234801561001057600080fd5b506001600055600380546001600160a01b031916331790556117b0806100376000396000f3fe6080604052600436106100c25760003560e01c8063811923181161007f578063b2498df911610059578063b2498df9146101fd578063cada48151461021d578063ee7e080914610232578063fe464c4e1461025257600080fd5b8063811923181461018157806394cb675a146101a45780639a42f011146101dd57600080fd5b806305c845e7146100c75780630f7c8c50146100fc57806346da2fcf1461011157806347fcf018146101335780636213bdf21461015357806371cca1b61461016e575b600080fd5b3480156100d357600080fd5b506100e76100e2366004611341565b610267565b60405190151581526020015b60405180910390f35b61010f61010a366004611454565b6102f5565b005b34801561011d57600080fd5b50610126610414565b6040516100f3919061152c565b34801561013f57600080fd5b506100e761014e366004611341565b610779565b34801561015f57600080fd5b506040513381526020016100f3565b61010f61017c3660046113ad565b6107c2565b34801561018d57600080fd5b50610196610a40565b6040519081526020016100f3565b3480156101b057600080fd5b506100e76101bf36600461143c565b6000908152600760208190526040909120015460ff16151560011490565b3480156101e957600080fd5b506101966101f836600461143c565b610a50565b34801561020957600080fd5b506100e761021836600461143c565b610a85565b34801561022957600080fd5b50610126610ac2565b34801561023e57600080fd5b5061010f61024d36600461136c565b610d6f565b34801561025e57600080fd5b50610126610e2f565b6040516331a9108f60e11b81526004810182905260009033906001600160a01b03851690636352211e9060240160206040518083038186803b1580156102ac57600080fd5b505afa1580156102c0573d6000803e3d6000fd5b505050506040513d601f19601f820116820180604052508101906102e4919061131e565b6001600160a01b0316149392505050565b6000828152600760205260408120600a01546103129083906116aa565b905080341461038e5760405162461bcd60e51b815260206004820152603b60248201527f596f75206e65656420746f207061792074686520636f7272656374207072696360448201527f6520666f7220696e6372656173696e672074686520706572696f64000000000060648201526084015b60405180910390fd5b6103b0836000908152600760208190526040909120015460ff16151560011490565b156103e157600083815260076020526040812060080180548492906103d6908490611672565b9091555061040f9050565b600083815260076020819052604090912060088101849055908101805460ff19166001179055426005909101555b505050565b60606000610420610a40565b905060008060005b838110156104b0576000600781610440846001611672565b815260208082019290925260409081016000908120548082526007909352206004810154919250906001600160a01b0316331480156104885750600781015460ff1615156001145b1561049b57610498600185611672565b93505b505080806104a89061171b565b915050610428565b5060008167ffffffffffffffff8111156104da57634e487b7160e01b600052604160045260246000fd5b60405190808252806020026020018201604052801561051357816020015b610500611187565b8152602001906001900390816104f85790505b50905060005b84811015610770576000600781610531846001611672565b815260208082019290925260409081016000908120548082526007909352206004810154919250906001600160a01b0316331480156105795750600781015460ff1615156001145b1561075b5760408051610160810182528254815260018301546001600160a01b03908116602083015260028401549282019290925260038301548216606082015260048301549091166080820152600582015460a0820152600682018054839160c08401916105e7906116e0565b80601f0160208091040260200160405190810160405280929190818152602001828054610613906116e0565b80156106605780601f1061063557610100808354040283529160200191610660565b820191906000526020600020905b81548152906001019060200180831161064357829003601f168201915b5050509183525050600782015460ff161515602082015260088201546040820152600982018054606090920191610696906116e0565b80601f01602080910402602001604051908101604052809291908181526020018280546106c2906116e0565b801561070f5780601f106106e45761010080835404028352916020019161070f565b820191906000526020600020905b8154815290600101906020018083116106f257829003601f168201915b50505050508152602001600a8201548152505084878151811061074257634e487b7160e01b600052603260045260246000fd5b6020908102919091010152610758600187611672565b95505b505080806107689061171b565b915050610519565b50949350505050565b60006107858383610267565b6107a15760405162461bcd60e51b815260040161038590611631565b50600090815260076020819052604090912001805460ff1916905550600190565b600260005414156108155760405162461bcd60e51b815260206004820152601f60248201527f5265656e7472616e637947756172643a207265656e7472616e742063616c6c006044820152606401610385565b6002600055610828600180546001019055565b600061083360015490565b9050604051806101600160405280828152602001886001600160a01b03168152602001878152602001600360009054906101000a90046001600160a01b03166001600160a01b03168152602001336001600160a01b0316815260200142815260200186815260200160011515815260200185815260200184815260200183815250600760008381526020019081526020016000206000820151816000015560208201518160010160006101000a8154816001600160a01b0302191690836001600160a01b031602179055506040820151816002015560608201518160030160006101000a8154816001600160a01b0302191690836001600160a01b0316021790555060808201518160040160006101000a8154816001600160a01b0302191690836001600160a01b0316021790555060a0820151816005015560c08201518160060190805190602001906109889291906111fe565b5060e082015160078201805460ff1916911515919091179055610100820151600882015561012082015180516109c89160098401916020909101906111fe565b506101409190910151600a9091015560035460405187916001600160a01b03808b169285927fccb061c79a023cd43a0274535d9fff6447dd00590319e1cee969efc7a8ab1af292610a2a92911690339042908d906001908e908e908e906114c0565b60405180910390a4505060016000555050505050565b6000610a4b60015490565b905090565b600081815260076020526040812060050154428262278d00610a7284846116c9565b610a7c919061168a565b95945050505050565b600080610a9183610a50565b60008481526007602052604090206008015490915080821115610ab8575060019392505050565b5060009392505050565b60606000610ace610a40565b90506000808267ffffffffffffffff811115610afa57634e487b7160e01b600052604160045260246000fd5b604051908082528060200260200182016040528015610b3357816020015b610b20611187565b815260200190600190039081610b185790505b50905060005b83811015610d67576000600781610b51846001611672565b8152602080820192909252604090810160009081205480825260078452908290208251610160810184528154815260018201546001600160a01b039081169582019590955260028201549381019390935260038101548416606084015260048101549093166080830152600583015460a0830152600683018054919450839160c084019190610bdf906116e0565b80601f0160208091040260200160405190810160405280929190818152602001828054610c0b906116e0565b8015610c585780601f10610c2d57610100808354040283529160200191610c58565b820191906000526020600020905b815481529060010190602001808311610c3b57829003601f168201915b5050509183525050600782015460ff161515602082015260088201546040820152600982018054606090920191610c8e906116e0565b80601f0160208091040260200160405190810160405280929190818152602001828054610cba906116e0565b8015610d075780601f10610cdc57610100808354040283529160200191610d07565b820191906000526020600020905b815481529060010190602001808311610cea57829003601f168201915b50505050508152602001600a82015481525050848681518110610d3a57634e487b7160e01b600052603260045260246000fd5b6020908102919091010152610d50600186611672565b945050508080610d5f9061171b565b915050610b39565b509392505050565b610d798383610267565b610d955760405162461bcd60e51b815260040161038590611631565b6040516323b872dd60e01b81523360048201526001600160a01b038281166024830152604482018490528416906323b872dd90606401600060405180830381600087803b158015610de557600080fd5b505af1158015610df9573d6000803e3d6000fd5b5050506000928352506007602052604090912060040180546001600160a01b0319166001600160a01b0390921691909117905550565b60606000610e3b610a40565b905060008060005b83811015610ecb576000600781610e5b846001611672565b815260208082019290925260409081016000908120548082526007909352206004810154919250906001600160a01b031633148015610ea35750600781015460ff1615156001145b15610eb657610eb3600185611672565b93505b50508080610ec39061171b565b915050610e43565b5060008167ffffffffffffffff811115610ef557634e487b7160e01b600052604160045260246000fd5b604051908082528060200260200182016040528015610f2e57816020015b610f1b611187565b815260200190600190039081610f135790505b50905060005b84811015610770576000600781610f4c846001611672565b815260208082019290925260409081016000908120548082526007909352206004810154919250906001600160a01b031633148015610f905750600781015460ff16155b156111725760408051610160810182528254815260018301546001600160a01b03908116602083015260028401549282019290925260038301548216606082015260048301549091166080820152600582015460a0820152600682018054839160c0840191610ffe906116e0565b80601f016020809104026020016040519081016040528092919081815260200182805461102a906116e0565b80156110775780601f1061104c57610100808354040283529160200191611077565b820191906000526020600020905b81548152906001019060200180831161105a57829003601f168201915b5050509183525050600782015460ff1615156020820152600882015460408201526009820180546060909201916110ad906116e0565b80601f01602080910402602001604051908101604052809291908181526020018280546110d9906116e0565b80156111265780601f106110fb57610100808354040283529160200191611126565b820191906000526020600020905b81548152906001019060200180831161110957829003601f168201915b50505050508152602001600a8201548152505084878151811061115957634e487b7160e01b600052603260045260246000fd5b602090810291909101015261116f600187611672565b95505b5050808061117f9061171b565b915050610f34565b6040518061016001604052806000815260200160006001600160a01b031681526020016000815260200160006001600160a01b0316815260200160006001600160a01b0316815260200160008152602001606081526020016000151581526020016000815260200160608152602001600081525090565b82805461120a906116e0565b90600052602060002090601f01602090048101928261122c5760008555611272565b82601f1061124557805160ff1916838001178555611272565b82800160010185558215611272579182015b82811115611272578251825591602001919060010190611257565b5061127e929150611282565b5090565b5b8082111561127e5760008155600101611283565b600082601f8301126112a7578081fd5b813567ffffffffffffffff808211156112c2576112c261174c565b604051601f8301601f19908116603f011681019082821181831017156112ea576112ea61174c565b81604052838152866020858801011115611302578485fd5b8360208701602083013792830160200193909352509392505050565b60006020828403121561132f578081fd5b815161133a81611762565b9392505050565b60008060408385031215611353578081fd5b823561135e81611762565b946020939093013593505050565b600080600060608486031215611380578081fd5b833561138b81611762565b92506020840135915060408401356113a281611762565b809150509250925092565b60008060008060008060c087890312156113c5578182fd5b86356113d081611762565b955060208701359450604087013567ffffffffffffffff808211156113f3578384fd5b6113ff8a838b01611297565b955060608901359450608089013591508082111561141b578384fd5b5061142889828a01611297565b92505060a087013590509295509295509295565b60006020828403121561144d578081fd5b5035919050565b60008060408385031215611466578182fd5b50508035926020909101359150565b60008151808452815b8181101561149a5760208185018101518683018201520161147e565b818111156114ab5782602083870101525b50601f01601f19169290920160200192915050565b6001600160a01b0389811682528816602082015260408101879052610100606082018190526000906114f483820189611475565b905086151560808401528560a084015282810360c08401526115168186611475565b9150508260e08301529998505050505050505050565b60006020808301818452808551808352604092508286019150828160051b870101848801865b8381101561162357603f19898403018552815180518452878101516001600160a01b039081168986015287820151888601526060808301518216908601526080808301519091169085015260a0808201519085015260c08082015161016082870181905291906115c483880182611475565b9250505060e0808301516115db8288018215159052565b5050610100828101519086015261012080830151868303828801526116008382611475565b610140948501519790940196909652505094870194925090860190600101611552565b509098975050505050505050565b60208082526021908201527f596f7520617265206e6f7420746865206f776e6572206f662074686973204e466040820152601560fa1b606082015260800190565b6000821982111561168557611685611736565b500190565b6000826116a557634e487b7160e01b81526012600452602481fd5b500490565b60008160001904831182151516156116c4576116c4611736565b500290565b6000828210156116db576116db611736565b500390565b600181811c908216806116f457607f821691505b6020821081141561171557634e487b7160e01b600052602260045260246000fd5b50919050565b600060001982141561172f5761172f611736565b5060010190565b634e487b7160e01b600052601160045260246000fd5b634e487b7160e01b600052604160045260246000fd5b6001600160a01b038116811461177757600080fd5b5056fea2646970667358221220b557499a3ba298fca648585fcc02b77dd29912ce955817e0b78e7434f33bd37164736f6c63430008040033",
  "linkReferences": {},
  "deployedLinkReferences": {}
}