{
  "_format": "hh-sol-artifact-1",
  "contractName": "NFTWarranty",
  "sourceName": "contracts/NFTWarranty.sol",
  "abi": [
    {
      "inputs": [],
      "stateMutability": "payable",
      "type": "constructor"
    },
    {
      "anonymous": false,
      "inputs": [
        {
          "indexed": true,
          "internalType": "address",
          "name": "owner",
          "type": "address"
        },
        {
          "indexed": true,
          "internalType": "address",
          "name": "approved",
          "type": "address"
        },
        {
          "indexed": true,
          "internalType": "uint256",
          "name": "tokenId",
          "type": "uint256"
        }
      ],
      "name": "Approval",
      "type": "event"
    },
    {
      "anonymous": false,
      "inputs": [
        {
          "indexed": true,
          "internalType": "address",
          "name": "owner",
          "type": "address"
        },
        {
          "indexed": true,
          "internalType": "address",
          "name": "operator",
          "type": "address"
        },
        {
          "indexed": false,
          "internalType": "bool",
          "name": "approved",
          "type": "bool"
        }
      ],
      "name": "ApprovalForAll",
      "type": "event"
    },
    {
      "anonymous": false,
      "inputs": [
        {
          "indexed": true,
          "internalType": "address",
          "name": "from",
          "type": "address"
        },
        {
          "indexed": true,
          "internalType": "address",
          "name": "to",
          "type": "address"
        },
        {
          "indexed": true,
          "internalType": "uint256",
          "name": "tokenId",
          "type": "uint256"
        }
      ],
      "name": "Transfer",
      "type": "event"
    },
    {
      "anonymous": false,
      "inputs": [
        {
          "indexed": true,
          "internalType": "uint256",
          "name": "itemId",
          "type": "uint256"
        },
        {
          "indexed": true,
          "internalType": "uint256",
          "name": "tokenId",
          "type": "uint256"
        },
        {
          "indexed": false,
          "internalType": "address",
          "name": "seller",
          "type": "address"
        },
        {
          "indexed": false,
          "internalType": "address",
          "name": "owner",
          "type": "address"
        },
        {
          "indexed": false,
          "internalType": "uint256",
          "name": "startDate",
          "type": "uint256"
        },
        {
          "indexed": false,
          "internalType": "string",
          "name": "productUrl",
          "type": "string"
        },
        {
          "indexed": false,
          "internalType": "bool",
          "name": "active",
          "type": "bool"
        },
        {
          "indexed": false,
          "internalType": "uint256",
          "name": "period",
          "type": "uint256"
        },
        {
          "indexed": false,
          "internalType": "string",
          "name": "sno",
          "type": "string"
        },
        {
          "indexed": false,
          "internalType": "uint256",
          "name": "incrementPrice",
          "type": "uint256"
        }
      ],
      "name": "WarrantyItemCreated",
      "type": "event"
    },
    {
      "inputs": [
        {
          "internalType": "address",
          "name": "to",
          "type": "address"
        },
        {
          "internalType": "uint256",
          "name": "tokenId",
          "type": "uint256"
        }
      ],
      "name": "approve",
      "outputs": [],
      "stateMutability": "nonpayable",
      "type": "function"
    },
    {
      "inputs": [
        {
          "internalType": "address",
          "name": "owner",
          "type": "address"
        }
      ],
      "name": "balanceOf",
      "outputs": [
        {
          "internalType": "uint256",
          "name": "",
          "type": "uint256"
        }
      ],
      "stateMutability": "view",
      "type": "function"
    },
    {
      "inputs": [
        {
          "internalType": "uint256",
          "name": "tokenId",
          "type": "uint256"
        }
      ],
      "name": "burnNFT",
      "outputs": [
        {
          "internalType": "bool",
          "name": "",
          "type": "bool"
        }
      ],
      "stateMutability": "nonpayable",
      "type": "function"
    },
    {
      "inputs": [
        {
          "internalType": "uint256",
          "name": "itemId",
          "type": "uint256"
        }
      ],
      "name": "checkIfExpired",
      "outputs": [
        {
          "internalType": "bool",
          "name": "",
          "type": "bool"
        }
      ],
      "stateMutability": "view",
      "type": "function"
    },
    {
      "inputs": [
        {
          "internalType": "string",
          "name": "uri",
          "type": "string"
        },
        {
          "internalType": "uint256",
          "name": "period",
          "type": "uint256"
        },
        {
          "internalType": "string",
          "name": "sno",
          "type": "string"
        },
        {
          "internalType": "uint256",
          "name": "incrementPrice",
          "type": "uint256"
        }
      ],
      "name": "createToken",
      "outputs": [
        {
          "internalType": "uint256",
          "name": "",
          "type": "uint256"
        }
      ],
      "stateMutability": "nonpayable",
      "type": "function"
    },
    {
      "inputs": [
        {
          "internalType": "uint256",
          "name": "tokenId",
          "type": "uint256"
        },
        {
          "internalType": "string",
          "name": "productUrl",
          "type": "string"
        },
        {
          "internalType": "uint256",
          "name": "period",
          "type": "uint256"
        },
        {
          "internalType": "string",
          "name": "sno",
          "type": "string"
        },
        {
          "internalType": "uint256",
          "name": "incrementPrice",
          "type": "uint256"
        }
      ],
      "name": "createWarrantyItem",
      "outputs": [],
      "stateMutability": "nonpayable",
      "type": "function"
    },
    {
      "inputs": [],
      "name": "fetchMyExpiredWarrantyItems",
      "outputs": [
        {
          "components": [
            {
              "internalType": "uint256",
              "name": "itemId",
              "type": "uint256"
            },
            {
              "internalType": "uint256",
              "name": "tokenId",
              "type": "uint256"
            },
            {
              "internalType": "address",
              "name": "seller",
              "type": "address"
            },
            {
              "internalType": "address payable",
              "name": "owner",
              "type": "address"
            },
            {
              "internalType": "uint256",
              "name": "startDate",
              "type": "uint256"
            },
            {
              "internalType": "string",
              "name": "productUrl",
              "type": "string"
            },
            {
              "internalType": "bool",
              "name": "active",
              "type": "bool"
            },
            {
              "internalType": "uint256",
              "name": "period",
              "type": "uint256"
            },
            {
              "internalType": "string",
              "name": "sno",
              "type": "string"
            },
            {
              "internalType": "uint256",
              "name": "incrementPrice",
              "type": "uint256"
            }
          ],
          "internalType": "struct NFTWarranty.WarrantyItem[]",
          "name": "",
          "type": "tuple[]"
        }
      ],
      "stateMutability": "view",
      "type": "function"
    },
    {
      "inputs": [],
      "name": "fetchMyWarrantyItems",
      "outputs": [
        {
          "components": [
            {
              "internalType": "uint256",
              "name": "itemId",
              "type": "uint256"
            },
            {
              "internalType": "uint256",
              "name": "tokenId",
              "type": "uint256"
            },
            {
              "internalType": "address",
              "name": "seller",
              "type": "address"
            },
            {
              "internalType": "address payable",
              "name": "owner",
              "type": "address"
            },
            {
              "internalType": "uint256",
              "name": "startDate",
              "type": "uint256"
            },
            {
              "internalType": "string",
              "name": "productUrl",
              "type": "string"
            },
            {
              "internalType": "bool",
              "name": "active",
              "type": "bool"
            },
            {
              "internalType": "uint256",
              "name": "period",
              "type": "uint256"
            },
            {
              "internalType": "string",
              "name": "sno",
              "type": "string"
            },
            {
              "internalType": "uint256",
              "name": "incrementPrice",
              "type": "uint256"
            }
          ],
          "internalType": "struct NFTWarranty.WarrantyItem[]",
          "name": "",
          "type": "tuple[]"
        }
      ],
      "stateMutability": "view",
      "type": "function"
    },
    {
      "inputs": [],
      "name": "getAllWarrantyItems",
      "outputs": [
        {
          "components": [
            {
              "internalType": "uint256",
              "name": "itemId",
              "type": "uint256"
            },
            {
              "internalType": "uint256",
              "name": "tokenId",
              "type": "uint256"
            },
            {
              "internalType": "address",
              "name": "seller",
              "type": "address"
            },
            {
              "internalType": "address payable",
              "name": "owner",
              "type": "address"
            },
            {
              "internalType": "uint256",
              "name": "startDate",
              "type": "uint256"
            },
            {
              "internalType": "string",
              "name": "productUrl",
              "type": "string"
            },
            {
              "internalType": "bool",
              "name": "active",
              "type": "bool"
            },
            {
              "internalType": "uint256",
              "name": "period",
              "type": "uint256"
            },
            {
              "internalType": "string",
              "name": "sno",
              "type": "string"
            },
            {
              "internalType": "uint256",
              "name": "incrementPrice",
              "type": "uint256"
            }
          ],
          "internalType": "struct NFTWarranty.WarrantyItem[]",
          "name": "",
          "type": "tuple[]"
        }
      ],
      "stateMutability": "view",
      "type": "function"
    },
    {
      "inputs": [
        {
          "internalType": "uint256",
          "name": "tokenId",
          "type": "uint256"
        }
      ],
      "name": "getApproved",
      "outputs": [
        {
          "internalType": "address",
          "name": "",
          "type": "address"
        }
      ],
      "stateMutability": "view",
      "type": "function"
    },
    {
      "inputs": [
        {
          "internalType": "uint256",
          "name": "itemId",
          "type": "uint256"
        }
      ],
      "name": "getMonthsPassed",
      "outputs": [
        {
          "internalType": "uint256",
          "name": "",
          "type": "uint256"
        }
      ],
      "stateMutability": "view",
      "type": "function"
    },
    {
      "inputs": [],
      "name": "getWarrantyItemCount",
      "outputs": [
        {
          "internalType": "uint256",
          "name": "",
          "type": "uint256"
        }
      ],
      "stateMutability": "view",
      "type": "function"
    },
    {
      "inputs": [
        {
          "internalType": "uint256",
          "name": "itemId",
          "type": "uint256"
        },
        {
          "internalType": "uint256",
          "name": "addPeriod",
          "type": "uint256"
        }
      ],
      "name": "increasePeriod",
      "outputs": [],
      "stateMutability": "payable",
      "type": "function"
    },
    {
      "inputs": [
        {
          "internalType": "address",
          "name": "owner",
          "type": "address"
        },
        {
          "internalType": "address",
          "name": "operator",
          "type": "address"
        }
      ],
      "name": "isApprovedForAll",
      "outputs": [
        {
          "internalType": "bool",
          "name": "",
          "type": "bool"
        }
      ],
      "stateMutability": "view",
      "type": "function"
    },
    {
      "inputs": [],
      "name": "name",
      "outputs": [
        {
          "internalType": "string",
          "name": "",
          "type": "string"
        }
      ],
      "stateMutability": "view",
      "type": "function"
    },
    {
      "inputs": [
        {
          "internalType": "uint256",
          "name": "tokenId",
          "type": "uint256"
        }
      ],
      "name": "ownerOf",
      "outputs": [
        {
          "internalType": "address",
          "name": "",
          "type": "address"
        }
      ],
      "stateMutability": "view",
      "type": "function"
    },
    {
      "inputs": [],
      "name": "returnCaller",
      "outputs": [
        {
          "internalType": "address",
          "name": "",
          "type": "address"
        }
      ],
      "stateMutability": "view",
      "type": "function"
    },
    {
      "inputs": [
        {
          "internalType": "address",
          "name": "from",
          "type": "address"
        },
        {
          "internalType": "address",
          "name": "to",
          "type": "address"
        },
        {
          "internalType": "uint256",
          "name": "tokenId",
          "type": "uint256"
        }
      ],
      "name": "safeTransferFrom",
      "outputs": [],
      "stateMutability": "nonpayable",
      "type": "function"
    },
    {
      "inputs": [
        {
          "internalType": "address",
          "name": "from",
          "type": "address"
        },
        {
          "internalType": "address",
          "name": "to",
          "type": "address"
        },
        {
          "internalType": "uint256",
          "name": "tokenId",
          "type": "uint256"
        },
        {
          "internalType": "bytes",
          "name": "data",
          "type": "bytes"
        }
      ],
      "name": "safeTransferFrom",
      "outputs": [],
      "stateMutability": "nonpayable",
      "type": "function"
    },
    {
      "inputs": [
        {
          "internalType": "address",
          "name": "operator",
          "type": "address"
        },
        {
          "internalType": "bool",
          "name": "approved",
          "type": "bool"
        }
      ],
      "name": "setApprovalForAll",
      "outputs": [],
      "stateMutability": "nonpayable",
      "type": "function"
    },
    {
      "inputs": [
        {
          "internalType": "bytes4",
          "name": "interfaceId",
          "type": "bytes4"
        }
      ],
      "name": "supportsInterface",
      "outputs": [
        {
          "internalType": "bool",
          "name": "",
          "type": "bool"
        }
      ],
      "stateMutability": "view",
      "type": "function"
    },
    {
      "inputs": [],
      "name": "symbol",
      "outputs": [
        {
          "internalType": "string",
          "name": "",
          "type": "string"
        }
      ],
      "stateMutability": "view",
      "type": "function"
    },
    {
      "inputs": [
        {
          "internalType": "uint256",
          "name": "tokenId",
          "type": "uint256"
        }
      ],
      "name": "tokenURI",
      "outputs": [
        {
          "internalType": "string",
          "name": "",
          "type": "string"
        }
      ],
      "stateMutability": "view",
      "type": "function"
    },
    {
      "inputs": [
        {
          "internalType": "address",
          "name": "from",
          "type": "address"
        },
        {
          "internalType": "address",
          "name": "to",
          "type": "address"
        },
        {
          "internalType": "uint256",
          "name": "tokenId",
          "type": "uint256"
        }
      ],
      "name": "transferFrom",
      "outputs": [],
      "stateMutability": "nonpayable",
      "type": "function"
    },
    {
      "inputs": [
        {
          "internalType": "uint256",
          "name": "tokenId",
          "type": "uint256"
        },
        {
          "internalType": "address payable",
          "name": "newOwner",
          "type": "address"
        }
      ],
      "name": "transferWarrantyItem",
      "outputs": [],
      "stateMutability": "nonpayable",
      "type": "function"
    },
    {
      "inputs": [
        {
          "internalType": "uint256",
          "name": "tokenId",
          "type": "uint256"
        }
      ],
      "name": "verifyNFTOwnership",
      "outputs": [
        {
          "internalType": "bool",
          "name": "",
          "type": "bool"
        }
      ],
      "stateMutability": "view",
      "type": "function"
    },
    {
      "inputs": [
        {
          "internalType": "uint256",
          "name": "itemId",
          "type": "uint256"
        }
      ],
      "name": "verifyWarrantyItemActive",
      "outputs": [
        {
          "internalType": "bool",
          "name": "",
          "type": "bool"
        }
      ],
      "stateMutability": "view",
      "type": "function"
    }
  ],
  "bytecode": "0x601060808181526f4d657461766572736520546f6b656e7360801b60a0908152610100604052600360c09081526213515560ea1b60e0529192620000469160009162000077565b5080516200005c90600190602084019062000077565b5050600a80546001600160a01b03191633179055506200015a565b82805462000085906200011d565b90600052602060002090601f016020900481019282620000a95760008555620000f4565b82601f10620000c457805160ff1916838001178555620000f4565b82800160010185558215620000f4579182015b82811115620000f4578251825591602001919060010190620000d7565b506200010292915062000106565b5090565b5b8082111562000102576000815560010162000107565b600181811c908216806200013257607f821691505b602082108114156200015457634e487b7160e01b600052602260045260246000fd5b50919050565b612b78806200016a6000396000f3fe60806040526004361061019c5760003560e01c806370a08231116100ec578063b88d4fde1161008a578063ce2acbed11610064578063ce2acbed1461049f578063d67b2d08146104bf578063e985e9c5146104df578063fe464c4e1461052857600080fd5b8063b88d4fde1461044a578063c87b56dd1461046a578063cada48151461048a57600080fd5b806395d89b41116100c657806395d89b41146103d55780639a42f011146103ea578063a22cb4651461040a578063b2498df91461042a57600080fd5b806370a082311461035a578063811923181461038857806394cb675a1461039d57600080fd5b806323b872dd1161015957806346da2fcf1161013357806346da2fcf146102e55780634bba2a57146103075780636213bdf2146103275780636352211e1461033a57600080fd5b806323b872dd146102855780632890e0d7146102a557806342842e0e146102c557600080fd5b806301ffc9a7146101a157806306fdde03146101d6578063081812fc146101f8578063095ea7b3146102305780630f7c8c501461025257806311ed77ca14610265575b600080fd5b3480156101ad57600080fd5b506101c16101bc366004612589565b61053d565b60405190151581526020015b60405180910390f35b3480156101e257600080fd5b506101eb61058f565b6040516101cd9190612908565b34801561020457600080fd5b50610218610213366004612633565b610621565b6040516001600160a01b0390911681526020016101cd565b34801561023c57600080fd5b5061025061024b36600461255e565b610648565b005b6102506102603660046126eb565b610763565b34801561027157600080fd5b5061025061028036600461264b565b6107e5565b34801561029157600080fd5b506102506102a0366004612470565b610846565b3480156102b157600080fd5b506101c16102c0366004612633565b610877565b3480156102d157600080fd5b506102506102e0366004612470565b6108c8565b3480156102f157600080fd5b506102fa6108e3565b6040516101cd9190612810565b34801561031357600080fd5b506101c1610322366004612633565b610c3c565b34801561033357600080fd5b5033610218565b34801561034657600080fd5b50610218610355366004612633565b610c6e565b34801561036657600080fd5b5061037a61037536600461241c565b610cce565b6040519081526020016101cd565b34801561039457600080fd5b5061037a610d54565b3480156103a957600080fd5b506101c16103b8366004612633565b6000908152600e602052604090206006015460ff16151560011490565b3480156103e157600080fd5b506101eb610d64565b3480156103f657600080fd5b5061037a610405366004612633565b610d73565b34801561041657600080fd5b5061025061042536600461252d565b610da8565b34801561043657600080fd5b506101c1610445366004612633565b610db3565b34801561045657600080fd5b506102506104653660046124b0565b610df0565b34801561047657600080fd5b506101eb610485366004612633565b610e28565b34801561049657600080fd5b506102fa610f39565b3480156104ab57600080fd5b506102506104ba36600461266f565b6111dd565b3480156104cb57600080fd5b5061037a6104da3660046125c1565b61136a565b3480156104eb57600080fd5b506101c16104fa366004612438565b6001600160a01b03918216600090815260056020908152604080832093909416825291909152205460ff1690565b34801561053457600080fd5b506102fa61157d565b60006001600160e01b031982166380ac58cd60e01b148061056e57506001600160e01b03198216635b5e139f60e01b145b8061058957506301ffc9a760e01b6001600160e01b03198316145b92915050565b60606000805461059e90612a6b565b80601f01602080910402602001604051908101604052809291908181526020018280546105ca90612a6b565b80156106175780601f106105ec57610100808354040283529160200191610617565b820191906000526020600020905b8154815290600101906020018083116105fa57829003601f168201915b5050505050905090565b600061062c826118c9565b506000908152600460205260409020546001600160a01b031690565b600061065382610c6e565b9050806001600160a01b0316836001600160a01b031614156106c65760405162461bcd60e51b815260206004820152602160248201527f4552433732313a20617070726f76616c20746f2063757272656e74206f776e656044820152603960f91b60648201526084015b60405180910390fd5b336001600160a01b03821614806106e257506106e281336104fa565b6107545760405162461bcd60e51b815260206004820152603e60248201527f4552433732313a20617070726f76652063616c6c6572206973206e6f7420746f60448201527f6b656e206f776e6572206e6f7220617070726f76656420666f7220616c6c000060648201526084016106bd565b61075e838361192b565b505050565b610784826000908152600e602052604090206006015460ff16151560011490565b156107b5576000828152600e6020526040812060070180548392906107aa9084906129fc565b909155506107e19050565b6000828152600e602052604090206007810182905560068101805460ff19166001179055426004909101555b5050565b6107ee82610c3c565b61080a5760405162461bcd60e51b81526004016106bd9061296d565b610815338284610846565b6000918252600e602052604090912060030180546001600160a01b0319166001600160a01b03909216919091179055565b6108503382611999565b61086c5760405162461bcd60e51b81526004016106bd906129ae565b61075e838383611a17565b600061088282610c3c565b61089e5760405162461bcd60e51b81526004016106bd9061296d565b6000828152600e60205260409020600601805460ff191690556108c082611bb3565b506001919050565b61075e83838360405180602001604052806000815250610df0565b606060006108ef610d54565b905060008060005b8381101561097f576000600e8161090f8460016129fc565b81526020808201929092526040908101600090812054808252600e909352206003810154919250906001600160a01b0316331480156109575750600681015460ff1615156001145b1561096a576109676001856129fc565b93505b5050808061097790612aa6565b9150506108f7565b5060008167ffffffffffffffff8111156109a957634e487b7160e01b600052604160045260246000fd5b6040519080825280602002602001820160405280156109e257816020015b6109cf612251565b8152602001906001900390816109c75790505b50905060005b84811015610c33576000600e81610a008460016129fc565b81526020808201929092526040908101600090812054808252600e909352206003810154919250906001600160a01b031633148015610a485750600681015460ff1615156001145b15610c1e576040805161014081018252825481526001830154602082015260028301546001600160a01b03908116928201929092526003830154909116606082015260048201546080820152600582018054839160a0840191610aaa90612a6b565b80601f0160208091040260200160405190810160405280929190818152602001828054610ad690612a6b565b8015610b235780601f10610af857610100808354040283529160200191610b23565b820191906000526020600020905b815481529060010190602001808311610b0657829003601f168201915b5050509183525050600682015460ff161515602082015260078201546040820152600882018054606090920191610b5990612a6b565b80601f0160208091040260200160405190810160405280929190818152602001828054610b8590612a6b565b8015610bd25780601f10610ba757610100808354040283529160200191610bd2565b820191906000526020600020905b815481529060010190602001808311610bb557829003601f168201915b50505050508152602001600982015481525050848781518110610c0557634e487b7160e01b600052603260045260246000fd5b6020908102919091010152610c1b6001876129fc565b95505b50508080610c2b90612aa6565b9150506109e8565b50949350505050565b6000818152600e60205260408120600301546001600160a01b0316331415610c6657506001919050565b506000919050565b6000818152600260205260408120546001600160a01b0316806105895760405162461bcd60e51b8152602060048201526018602482015277115490cdcc8c4e881a5b9d985b1a59081d1bdad95b88125160421b60448201526064016106bd565b60006001600160a01b038216610d385760405162461bcd60e51b815260206004820152602960248201527f4552433732313a2061646472657373207a65726f206973206e6f7420612076616044820152683634b21037bbb732b960b91b60648201526084016106bd565b506001600160a01b031660009081526003602052604090205490565b6000610d5f60075490565b905090565b60606001805461059e90612a6b565b6000818152600e6020526040812060040154428262278d00610d958484612a28565b610d9f9190612a14565b95945050505050565b6107e1338383611bf3565b600080610dbf83610d73565b6000848152600e602052604090206007015490915080821115610de6575060019392505050565b5060009392505050565b610dfa3383611999565b610e165760405162461bcd60e51b81526004016106bd906129ae565b610e2284848484611cc2565b50505050565b6060610e33826118c9565b60008281526006602052604081208054610e4c90612a6b565b80601f0160208091040260200160405190810160405280929190818152602001828054610e7890612a6b565b8015610ec55780601f10610e9a57610100808354040283529160200191610ec5565b820191906000526020600020905b815481529060010190602001808311610ea857829003601f168201915b505050505090506000610ee360408051602081019091526000815290565b9050805160001415610ef6575092915050565b815115610f28578082604051602001610f10929190612738565b60405160208183030381529060405292505050919050565b610f3184611cf5565b949350505050565b60606000610f45610d54565b90506000808267ffffffffffffffff811115610f7157634e487b7160e01b600052604160045260246000fd5b604051908082528060200260200182016040528015610faa57816020015b610f97612251565b815260200190600190039081610f8f5790505b50905060005b838110156111d5576000600e81610fc88460016129fc565b81526020808201929092526040908101600090812054808252600e8452908290208251610140810184528154815260018201549481019490945260028101546001600160a01b03908116938501939093526003810154909216606084015260048201546080840152600582018054919450919291839160a08401919061104d90612a6b565b80601f016020809104026020016040519081016040528092919081815260200182805461107990612a6b565b80156110c65780601f1061109b576101008083540402835291602001916110c6565b820191906000526020600020905b8154815290600101906020018083116110a957829003601f168201915b5050509183525050600682015460ff1615156020820152600782015460408201526008820180546060909201916110fc90612a6b565b80601f016020809104026020016040519081016040528092919081815260200182805461112890612a6b565b80156111755780601f1061114a57610100808354040283529160200191611175565b820191906000526020600020905b81548152906001019060200180831161115857829003601f168201915b505050505081526020016009820154815250508486815181106111a857634e487b7160e01b600052603260045260246000fd5b60209081029190910101526111be6001866129fc565b9450505080806111cd90612aa6565b915050610fb0565b509392505050565b6111eb600780546001019055565b60006111f660075490565b604080516101408101825282815260208082018a8152600a546001600160a01b039081168486019081523360608601908152426080870190815260a087018e8152600160c0890181905260e089018f905261010089018e905261012089018d905260008b8152600e8952999099208851815595519886019890985591516002850180549185166001600160a01b03199283161790559051600385018054919094169116179091555160048201559251805194955091936112bc92600585019201906122b8565b5060c082015160068201805460ff191691151591909117905560e0820151600782015561010082015180516112fb9160088401916020909101906122b8565b506101209190910151600990910155600a54604051879183917f44a27875d4831ca300c8290d52bbf1658a6e78031bcb44d20be9f14357656b329161135a916001600160a01b0390911690339042908c906001908d908d908d906127a4565b60405180910390a3505050505050565b600061137a600980546001019055565b600061138560095490565b90506113913382611d69565b61139b8187611d83565b6113a9600780546001019055565b60006113b460075490565b9050604051806101400160405280828152602001838152602001600a60009054906101000a90046001600160a01b03166001600160a01b03168152602001336001600160a01b0316815260200142815260200188815260200160011515815260200187815260200186815260200185815250600e6000838152602001908152602001600020600082015181600001556020820151816001015560408201518160020160006101000a8154816001600160a01b0302191690836001600160a01b0316021790555060608201518160030160006101000a8154816001600160a01b0302191690836001600160a01b031602179055506080820151816004015560a08201518160050190805190602001906114cd9291906122b8565b5060c082015160068201805460ff191691151591909117905560e08201516007820155610100820151805161150c9160088401916020909101906122b8565b506101209190910151600990910155600a54604051839183917f44a27875d4831ca300c8290d52bbf1658a6e78031bcb44d20be9f14357656b329161156b916001600160a01b0390911690339042908e906001908f908f908f906127a4565b60405180910390a35095945050505050565b60606000611589610d54565b905060008060005b83811015611619576000600e816115a98460016129fc565b81526020808201929092526040908101600090812054808252600e909352206003810154919250906001600160a01b0316331480156115f15750600681015460ff1615156001145b15611604576116016001856129fc565b93505b5050808061161190612aa6565b915050611591565b5060008167ffffffffffffffff81111561164357634e487b7160e01b600052604160045260246000fd5b60405190808252806020026020018201604052801561167c57816020015b611669612251565b8152602001906001900390816116615790505b50905060005b84811015610c33576000600e8161169a8460016129fc565b81526020808201929092526040908101600090812054808252600e909352206003810154919250906001600160a01b0316331480156116de5750600681015460ff16155b156118b4576040805161014081018252825481526001830154602082015260028301546001600160a01b03908116928201929092526003830154909116606082015260048201546080820152600582018054839160a084019161174090612a6b565b80601f016020809104026020016040519081016040528092919081815260200182805461176c90612a6b565b80156117b95780601f1061178e576101008083540402835291602001916117b9565b820191906000526020600020905b81548152906001019060200180831161179c57829003601f168201915b5050509183525050600682015460ff1615156020820152600782015460408201526008820180546060909201916117ef90612a6b565b80601f016020809104026020016040519081016040528092919081815260200182805461181b90612a6b565b80156118685780601f1061183d57610100808354040283529160200191611868565b820191906000526020600020905b81548152906001019060200180831161184b57829003601f168201915b5050505050815260200160098201548152505084878151811061189b57634e487b7160e01b600052603260045260246000fd5b60209081029190910101526118b16001876129fc565b95505b505080806118c190612aa6565b915050611682565b6000818152600260205260409020546001600160a01b03166119285760405162461bcd60e51b8152602060048201526018602482015277115490cdcc8c4e881a5b9d985b1a59081d1bdad95b88125160421b60448201526064016106bd565b50565b600081815260046020526040902080546001600160a01b0319166001600160a01b038416908117909155819061196082610c6e565b6001600160a01b03167f8c5be1e5ebec7d5bd14f71427d1e84f3dd0314c0f7b2291e5b200ac8c7c3b92560405160405180910390a45050565b6000806119a583610c6e565b9050806001600160a01b0316846001600160a01b031614806119ec57506001600160a01b0380821660009081526005602090815260408083209388168352929052205460ff165b80610f315750836001600160a01b0316611a0584610621565b6001600160a01b031614949350505050565b826001600160a01b0316611a2a82610c6e565b6001600160a01b031614611a8e5760405162461bcd60e51b815260206004820152602560248201527f4552433732313a207472616e736665722066726f6d20696e636f72726563742060448201526437bbb732b960d91b60648201526084016106bd565b6001600160a01b038216611af05760405162461bcd60e51b8152602060048201526024808201527f4552433732313a207472616e7366657220746f20746865207a65726f206164646044820152637265737360e01b60648201526084016106bd565b611afb60008261192b565b6001600160a01b0383166000908152600360205260408120805460019290611b24908490612a28565b90915550506001600160a01b0382166000908152600360205260408120805460019290611b529084906129fc565b909155505060008181526002602052604080822080546001600160a01b0319166001600160a01b0386811691821790925591518493918716917fddf252ad1be2c89b69c2b068fc378daa952ba7f163c4a11628f55a4df523b3ef91a4505050565b611bbc81611e1d565b60008181526006602052604090208054611bd590612a6b565b1590506119285760008181526006602052604081206119289161233c565b816001600160a01b0316836001600160a01b03161415611c555760405162461bcd60e51b815260206004820152601960248201527f4552433732313a20617070726f766520746f2063616c6c65720000000000000060448201526064016106bd565b6001600160a01b03838116600081815260056020908152604080832094871680845294825291829020805460ff191686151590811790915591519182527f17307eab39ab6107e8899845ad3d59bd9653f200f220920489ca2b5937696c31910160405180910390a3505050565b611ccd848484611a17565b611cd984848484611eb8565b610e225760405162461bcd60e51b81526004016106bd9061291b565b6060611d00826118c9565b6000611d1760408051602081019091526000815290565b90506000815111611d375760405180602001604052806000815250611d62565b80611d4184611fc2565b604051602001611d52929190612738565b6040516020818303038152906040525b9392505050565b6107e18282604051806020016040528060008152506120dc565b6000828152600260205260409020546001600160a01b0316611dfe5760405162461bcd60e51b815260206004820152602e60248201527f45524337323155524953746f726167653a2055524920736574206f66206e6f6e60448201526d32bc34b9ba32b73a103a37b5b2b760911b60648201526084016106bd565b6000828152600660209081526040909120825161075e928401906122b8565b6000611e2882610c6e565b9050611e3560008361192b565b6001600160a01b0381166000908152600360205260408120805460019290611e5e908490612a28565b909155505060008281526002602052604080822080546001600160a01b0319169055518391906001600160a01b038416907fddf252ad1be2c89b69c2b068fc378daa952ba7f163c4a11628f55a4df523b3ef908390a45050565b60006001600160a01b0384163b15611fba57604051630a85bd0160e11b81526001600160a01b0385169063150b7a0290611efc903390899088908890600401612767565b602060405180830381600087803b158015611f1657600080fd5b505af1925050508015611f46575060408051601f3d908101601f19168201909252611f43918101906125a5565b60015b611fa0573d808015611f74576040519150601f19603f3d011682016040523d82523d6000602084013e611f79565b606091505b508051611f985760405162461bcd60e51b81526004016106bd9061291b565b805181602001fd5b6001600160e01b031916630a85bd0160e11b149050610f31565b506001610f31565b606081611fe65750506040805180820190915260018152600360fc1b602082015290565b8160005b81156120105780611ffa81612aa6565b91506120099050600a83612a14565b9150611fea565b60008167ffffffffffffffff81111561203957634e487b7160e01b600052604160045260246000fd5b6040519080825280601f01601f191660200182016040528015612063576020820181803683370190505b5090505b8415610f3157612078600183612a28565b9150612085600a86612ac1565b6120909060306129fc565b60f81b8183815181106120b357634e487b7160e01b600052603260045260246000fd5b60200101906001600160f81b031916908160001a9053506120d5600a86612a14565b9450612067565b6120e6838361210f565b6120f36000848484611eb8565b61075e5760405162461bcd60e51b81526004016106bd9061291b565b6001600160a01b0382166121655760405162461bcd60e51b815260206004820181905260248201527f4552433732313a206d696e7420746f20746865207a65726f206164647265737360448201526064016106bd565b6000818152600260205260409020546001600160a01b0316156121ca5760405162461bcd60e51b815260206004820152601c60248201527f4552433732313a20746f6b656e20616c7265616479206d696e7465640000000060448201526064016106bd565b6001600160a01b03821660009081526003602052604081208054600192906121f39084906129fc565b909155505060008181526002602052604080822080546001600160a01b0319166001600160a01b03861690811790915590518392907fddf252ad1be2c89b69c2b068fc378daa952ba7f163c4a11628f55a4df523b3ef908290a45050565b604051806101400160405280600081526020016000815260200160006001600160a01b0316815260200160006001600160a01b0316815260200160008152602001606081526020016000151581526020016000815260200160608152602001600081525090565b8280546122c490612a6b565b90600052602060002090601f0160209004810192826122e6576000855561232c565b82601f106122ff57805160ff191683800117855561232c565b8280016001018555821561232c579182015b8281111561232c578251825591602001919060010190612311565b50612338929150612372565b5090565b50805461234890612a6b565b6000825580601f10612358575050565b601f01602090049060005260206000209081019061192891905b5b808211156123385760008155600101612373565b600067ffffffffffffffff808411156123a2576123a2612b01565b604051601f8501601f19908116603f011681019082821181831017156123ca576123ca612b01565b816040528093508581528686860111156123e357600080fd5b858560208301376000602087830101525050509392505050565b600082601f83011261240d578081fd5b611d6283833560208501612387565b60006020828403121561242d578081fd5b8135611d6281612b17565b6000806040838503121561244a578081fd5b823561245581612b17565b9150602083013561246581612b17565b809150509250929050565b600080600060608486031215612484578081fd5b833561248f81612b17565b9250602084013561249f81612b17565b929592945050506040919091013590565b600080600080608085870312156124c5578081fd5b84356124d081612b17565b935060208501356124e081612b17565b925060408501359150606085013567ffffffffffffffff811115612502578182fd5b8501601f81018713612512578182fd5b61252187823560208401612387565b91505092959194509250565b6000806040838503121561253f578182fd5b823561254a81612b17565b915060208301358015158114612465578182fd5b60008060408385031215612570578182fd5b823561257b81612b17565b946020939093013593505050565b60006020828403121561259a578081fd5b8135611d6281612b2c565b6000602082840312156125b6578081fd5b8151611d6281612b2c565b600080600080608085870312156125d6578384fd5b843567ffffffffffffffff808211156125ed578586fd5b6125f9888389016123fd565b9550602087013594506040870135915080821115612615578384fd5b50612622878288016123fd565b949793965093946060013593505050565b600060208284031215612644578081fd5b5035919050565b6000806040838503121561265d578182fd5b82359150602083013561246581612b17565b600080600080600060a08688031215612686578081fd5b85359450602086013567ffffffffffffffff808211156126a4578283fd5b6126b089838a016123fd565b95506040880135945060608801359150808211156126cc578283fd5b506126d9888289016123fd565b95989497509295608001359392505050565b600080604083850312156126fd578182fd5b50508035926020909101359150565b60008151808452612724816020860160208601612a3f565b601f01601f19169290920160200192915050565b6000835161274a818460208801612a3f565b83519083019061275e818360208801612a3f565b01949350505050565b6001600160a01b038581168252841660208201526040810183905260806060820181905260009061279a9083018461270c565b9695505050505050565b6001600160a01b0389811682528816602082015260408101879052610100606082018190526000906127d88382018961270c565b905086151560808401528560a084015282810360c08401526127fa818661270c565b9150508260e08301529998505050505050505050565b60006020808301818452808551808352604092508286019150828160051b870101848801865b838110156128fa57603f198984030185528151805184528781015188850152868101516001600160a01b0390811688860152606080830151909116908501526080808201519085015260a080820151610140828701819052919061289c8388018261270c565b9250505060c0808301516128b38288018215159052565b505060e0828101519086015261010080830151868303828801526128d7838261270c565b610120948501519790940196909652505094870194925090860190600101612836565b509098975050505050505050565b602081526000611d62602083018461270c565b60208082526032908201527f4552433732313a207472616e7366657220746f206e6f6e20455243373231526560408201527131b2b4bb32b91034b6b83632b6b2b73a32b960711b606082015260800190565b60208082526021908201527f596f7520617265206e6f7420746865206f776e6572206f662074686973204e466040820152601560fa1b606082015260800190565b6020808252602e908201527f4552433732313a2063616c6c6572206973206e6f7420746f6b656e206f776e6560408201526d1c881b9bdc88185c1c1c9bdd995960921b606082015260800190565b60008219821115612a0f57612a0f612ad5565b500190565b600082612a2357612a23612aeb565b500490565b600082821015612a3a57612a3a612ad5565b500390565b60005b83811015612a5a578181015183820152602001612a42565b83811115610e225750506000910152565b600181811c90821680612a7f57607f821691505b60208210811415612aa057634e487b7160e01b600052602260045260246000fd5b50919050565b6000600019821415612aba57612aba612ad5565b5060010190565b600082612ad057612ad0612aeb565b500690565b634e487b7160e01b600052601160045260246000fd5b634e487b7160e01b600052601260045260246000fd5b634e487b7160e01b600052604160045260246000fd5b6001600160a01b038116811461192857600080fd5b6001600160e01b03198116811461192857600080fdfea264697066735822122072723a7c92bef160af0264e326b162f824227bdeddeb4e8093796f8c41e183a464736f6c63430008040033",
  "linkReferences": {},
  "deployedLinkReferences": {}
}