{
  "_format": "hh-sol-artifact-1",
  "contractName": "NFTMarket",
  "sourceName": "contracts/NFTMarket.sol",
  "abi": [
    {
      "inputs": [],
      "stateMutability": "nonpayable",
      "type": "constructor"
    },
    {
      "anonymous": false,
      "inputs": [
        {
          "indexed": true,
          "internalType": "uint256",
          "name": "itemId",
          "type": "uint256"
        },
        {
          "indexed": true,
          "internalType": "address",
          "name": "nftContract",
          "type": "address"
        },
        {
          "indexed": true,
          "internalType": "uint256",
          "name": "tokenId",
          "type": "uint256"
        },
        {
          "indexed": false,
          "internalType": "address",
          "name": "seller",
          "type": "address"
        },
        {
          "indexed": false,
          "internalType": "address",
          "name": "owner",
          "type": "address"
        },
        {
          "indexed": false,
          "internalType": "uint256",
          "name": "price",
          "type": "uint256"
        },
        {
          "indexed": false,
          "internalType": "bool",
          "name": "sold",
          "type": "bool"
        }
      ],
      "name": "MarketItemCreated",
      "type": "event"
    },
    {
      "inputs": [
        {
          "internalType": "address",
          "name": "nftContract",
          "type": "address"
        },
        {
          "internalType": "uint256",
          "name": "tokenId",
          "type": "uint256"
        },
        {
          "internalType": "uint256",
          "name": "price",
          "type": "uint256"
        }
      ],
      "name": "createMarketItem",
      "outputs": [],
      "stateMutability": "payable",
      "type": "function"
    },
    {
      "inputs": [
        {
          "internalType": "address",
          "name": "nftContract",
          "type": "address"
        },
        {
          "internalType": "uint256",
          "name": "itemId",
          "type": "uint256"
        }
      ],
      "name": "createMarketSale",
      "outputs": [],
      "stateMutability": "payable",
      "type": "function"
    },
    {
      "inputs": [],
      "name": "fetchItemsCreated",
      "outputs": [
        {
          "components": [
            {
              "internalType": "uint256",
              "name": "itemId",
              "type": "uint256"
            },
            {
              "internalType": "address",
              "name": "nftContract",
              "type": "address"
            },
            {
              "internalType": "uint256",
              "name": "tokenId",
              "type": "uint256"
            },
            {
              "internalType": "address payable",
              "name": "seller",
              "type": "address"
            },
            {
              "internalType": "address payable",
              "name": "owner",
              "type": "address"
            },
            {
              "internalType": "uint256",
              "name": "price",
              "type": "uint256"
            },
            {
              "internalType": "bool",
              "name": "sold",
              "type": "bool"
            }
          ],
          "internalType": "struct NFTMarket.MarketItem[]",
          "name": "",
          "type": "tuple[]"
        }
      ],
      "stateMutability": "view",
      "type": "function"
    },
    {
      "inputs": [],
      "name": "fetchMarketItems",
      "outputs": [
        {
          "components": [
            {
              "internalType": "uint256",
              "name": "itemId",
              "type": "uint256"
            },
            {
              "internalType": "address",
              "name": "nftContract",
              "type": "address"
            },
            {
              "internalType": "uint256",
              "name": "tokenId",
              "type": "uint256"
            },
            {
              "internalType": "address payable",
              "name": "seller",
              "type": "address"
            },
            {
              "internalType": "address payable",
              "name": "owner",
              "type": "address"
            },
            {
              "internalType": "uint256",
              "name": "price",
              "type": "uint256"
            },
            {
              "internalType": "bool",
              "name": "sold",
              "type": "bool"
            }
          ],
          "internalType": "struct NFTMarket.MarketItem[]",
          "name": "",
          "type": "tuple[]"
        }
      ],
      "stateMutability": "view",
      "type": "function"
    },
    {
      "inputs": [],
      "name": "fetchMyNFTs",
      "outputs": [
        {
          "components": [
            {
              "internalType": "uint256",
              "name": "itemId",
              "type": "uint256"
            },
            {
              "internalType": "address",
              "name": "nftContract",
              "type": "address"
            },
            {
              "internalType": "uint256",
              "name": "tokenId",
              "type": "uint256"
            },
            {
              "internalType": "address payable",
              "name": "seller",
              "type": "address"
            },
            {
              "internalType": "address payable",
              "name": "owner",
              "type": "address"
            },
            {
              "internalType": "uint256",
              "name": "price",
              "type": "uint256"
            },
            {
              "internalType": "bool",
              "name": "sold",
              "type": "bool"
            }
          ],
          "internalType": "struct NFTMarket.MarketItem[]",
          "name": "",
          "type": "tuple[]"
        }
      ],
      "stateMutability": "view",
      "type": "function"
    },
    {
      "inputs": [],
      "name": "getListingPrice",
      "outputs": [
        {
          "internalType": "uint256",
          "name": "",
          "type": "uint256"
        }
      ],
      "stateMutability": "view",
      "type": "function"
    },
    {
      "inputs": [
        {
          "internalType": "uint256",
          "name": "_price",
          "type": "uint256"
        }
      ],
      "name": "setListingPrice",
      "outputs": [
        {
          "internalType": "uint256",
          "name": "",
          "type": "uint256"
        }
      ],
      "stateMutability": "nonpayable",
      "type": "function"
    }
  ],
  "bytecode": "0x60806040526601c6bf5263400060045534801561001b57600080fd5b506001600055600380546001600160a01b03191633179055610d70806100426000396000f3fe6080604052600436106100705760003560e01c806358eb2df51161004e57806358eb2df5146100d45780637c726b69146100e9578063c23b139e14610109578063f064c32e1461011c57600080fd5b80630f08efe01461007557806312e85585146100a0578063202e3740146100bf575b600080fd5b34801561008157600080fd5b5061008a610131565b6040516100979190610c46565b60405180910390f35b3480156100ac57600080fd5b506004545b604051908152602001610097565b3480156100cb57600080fd5b5061008a6102eb565b6100e76100e2366004610bfc565b6104e3565b005b3480156100f557600080fd5b506100b1610104366004610c2e565b610777565b6100e7610117366004610bd3565b61078f565b34801561012857600080fd5b5061008a610983565b6060600061013e60015490565b9050600061014b60025490565b6001546101589190610cf2565b90506000808267ffffffffffffffff81111561018457634e487b7160e01b600052604160045260246000fd5b6040519080825280602002602001820160405280156101bd57816020015b6101aa610b7b565b8152602001906001900390816101a25790505b50905060005b848110156102e25760006005816101db846001610cda565b81526020810191909152604001600020600401546001600160a01b031614156102d057600060058161020e846001610cda565b81526020808201929092526040908101600090812054808252600580855291839020835160e0810185528154815260018201546001600160a01b0390811696820196909652600282015494810194909452600381015485166060850152600481015490941660808401529083015460a0830152600683015460ff16151560c083015285519093508590879081106102b557634e487b7160e01b600052603260045260246000fd5b60209081029190910101526102cb600186610cda565b945050505b806102da81610d09565b9150506101c3565b50949350505050565b606060006102f860015490565b905060008060005b8381101561035b573360056000610318846001610cda565b81526020810191909152604001600020600401546001600160a01b0316141561034957610346600184610cda565b92505b8061035381610d09565b915050610300565b5060008267ffffffffffffffff81111561038557634e487b7160e01b600052604160045260246000fd5b6040519080825280602002602001820160405280156103be57816020015b6103ab610b7b565b8152602001906001900390816103a35790505b50905060005b848110156102e25733600560006103dc846001610cda565b81526020810191909152604001600020600401546001600160a01b031614156104d157600060058161040f846001610cda565b81526020808201929092526040908101600090812054808252600580855291839020835160e0810185528154815260018201546001600160a01b0390811696820196909652600282015494810194909452600381015485166060850152600481015490941660808401529083015460a0830152600683015460ff16151560c083015285519093508590879081106104b657634e487b7160e01b600052603260045260246000fd5b60209081029190910101526104cc600186610cda565b945050505b806104db81610d09565b9150506103c4565b6002600054141561053b5760405162461bcd60e51b815260206004820152601f60248201527f5265656e7472616e637947756172643a207265656e7472616e742063616c6c0060448201526064015b60405180910390fd5b60026000558061058d5760405162461bcd60e51b815260206004820152601c60248201527f5072696365206d7573742062652067726561746572207468616e2030000000006044820152606401610532565b60045434146105de5760405162461bcd60e51b815260206004820152601e60248201527f5072696365206d757374206d61746368206c697374696e6720707269636500006044820152606401610532565b6105ec600180546001019055565b60006105f760015490565b6040805160e0810182528281526001600160a01b0387811660208084018281528486018a8152336060870181815260006080890181815260a08a018e815260c08b018381528d8452600598899052928c90209a518b55955160018b018054918b166001600160a01b0319928316179055945160028b0155915160038a018054918a1691861691909117905590516004808a01805492909916919094161790965591519286019290925592516006909401805494151560ff199095169490941790935592516323b872dd60e01b81529182015230602482015260448101869052919250906323b872dd90606401600060405180830381600087803b1580156106fd57600080fd5b505af1158015610711573d6000803e3d6000fd5b505060408051338152600060208201819052818301879052606082015290518693506001600160a01b038816925084917f045dfa01dcba2b36aba1d3dc4a874f4b0c5d2fbeb8d2c4b34a7d88c8d8f929d1919081900360800190a4505060016000555050565b6000333014156107875760048290555b505060045490565b600260005414156107e25760405162461bcd60e51b815260206004820152601f60248201527f5265656e7472616e637947756172643a207265656e7472616e742063616c6c006044820152606401610532565b600260008181558281526005602081905260409091209081015491015434821461084e5760405162461bcd60e51b815260206004820152601c60248201527f506c65617365207061792074686520636f7272656374207072696365000000006044820152606401610532565b6000838152600560205260408082206003015490516001600160a01b03909116913480156108fc02929091818181858888f19350505050158015610896573d6000803e3d6000fd5b506040516323b872dd60e01b8152306004820152336024820152604481018290526001600160a01b038516906323b872dd90606401600060405180830381600087803b1580156108e557600080fd5b505af11580156108f9573d6000803e3d6000fd5b50505060008481526005602052604090206004810180546001600160a01b03191633179055600601805460ff191660011790555061093b600280546001019055565b6003546004546040516001600160a01b039092169181156108fc0291906000818181858888f19350505050158015610977573d6000803e3d6000fd5b50506001600055505050565b6060600061099060015490565b905060008060005b838110156109f35733600560006109b0846001610cda565b81526020810191909152604001600020600301546001600160a01b031614156109e1576109de600184610cda565b92505b806109eb81610d09565b915050610998565b5060008267ffffffffffffffff811115610a1d57634e487b7160e01b600052604160045260246000fd5b604051908082528060200260200182016040528015610a5657816020015b610a43610b7b565b815260200190600190039081610a3b5790505b50905060005b848110156102e2573360056000610a74846001610cda565b81526020810191909152604001600020600301546001600160a01b03161415610b69576000600581610aa7846001610cda565b81526020808201929092526040908101600090812054808252600580855291839020835160e0810185528154815260018201546001600160a01b0390811696820196909652600282015494810194909452600381015485166060850152600481015490941660808401529083015460a0830152600683015460ff16151560c08301528551909350859087908110610b4e57634e487b7160e01b600052603260045260246000fd5b6020908102919091010152610b64600186610cda565b945050505b80610b7381610d09565b915050610a5c565b6040805160e081018252600080825260208201819052918101829052606081018290526080810182905260a0810182905260c081019190915290565b80356001600160a01b0381168114610bce57600080fd5b919050565b60008060408385031215610be5578182fd5b610bee83610bb7565b946020939093013593505050565b600080600060608486031215610c10578081fd5b610c1984610bb7565b95602085013595506040909401359392505050565b600060208284031215610c3f578081fd5b5035919050565b602080825282518282018190526000919060409081850190868401855b82811015610ccd57815180518552868101516001600160a01b039081168887015286820151878701526060808301518216908701526080808301519091169086015260a0808201519086015260c09081015115159085015260e09093019290850190600101610c63565b5091979650505050505050565b60008219821115610ced57610ced610d24565b500190565b600082821015610d0457610d04610d24565b500390565b6000600019821415610d1d57610d1d610d24565b5060010190565b634e487b7160e01b600052601160045260246000fdfea2646970667358221220f945977d709ac2c728bc0cbb2aef15686e20ef7ab086799bc7bebff34d3bfc5864736f6c63430008040033",
  "linkReferences": {},
  "deployedLinkReferences": {}
}